:020000040800F2
:10000000F0FF0220F113070839140708C1A90008FE
:1000100039140708391407083914070800000000CC
:100020000000000000000000000000003914070874
:10003000391407080000000039140708619A000805
:100040003914070839140708391407083914070840
:100050003914070839140708B5B80008BDB80008F6
:10006000C5B80008CDB80008D5B80008391407088D
:100070003914070839140708391407083914070810
:100080003914070839140708391407083914070800
:10009000391407083914070839140708DDB80008AF
:1000A000E9E60008F9E6000821E7000869E600082B
:1000B00079E6000889E6000899E6000829EF0008BB
:1000C00045AC000835EF000855AC000839140708A6
:1000D000391407083150060801510608F551060881
:1000E000E5B80008391407083914070831E7000893
:1000F00041E7000851E70008D9E60008391407086D
:100100003914070839140708A9E600083914070844
:10011000E9520608DD530608B9E60008C9E60008FA
:1001200029B200083DB2000851B2000865B20008CB
:1001300079B2000839140708391407083914070878
:10014000391407083914070839140708A5C6000828
:100150008DB20008A1B2000800000000D1540608CA
:1001600041EF000865AC000800000000000000003E
:10017000391407083914070839140708000000006B
:100180000000000039140708C5550608B9560608CE
:100190003914070800000000000000000000000003
:1001A00000000000000000000000000039140708F3
:1001B0003914070800000000391407080000000087
:1001C000000000000000000000000000000000002F
:1001D0000000000000000000391407083914070867
:1001E00039140708B9C500083914070861E7000881
:1001F000B5B20008C9B20008DDB20008F1B20008CB
:0C02000005B3000819B300082DB3000876
:1080000070B40D4A0D4E0E4C0E4D4FF0010C36F86B
:10801000020F002340FA03F1C90704D50CFA03F15B
:108020001460918008320133102BF3D104F5806481
:10803000AC42ECD170BC7047D01900201244070844
:108040000000024000200240072809D8054B4C22BE
:1080500002FB0033B3F88002B0FA80F040097047A9
:1080600000207047D0190020072806D8034B4C2267
:1080700002FB0033012283F882227047D0190020CE
:1080800038B5374C4C2303FB004393F88F3203B9C8
:1080900038BD94F8E05494F8E1349D420FD003EBDE
:1080A000430204EBC20292F8E4C40CF1FF3EBEF1BD
:1080B000010F4FEA430244D9BCF1030F3BD04C22DD
:1080C00002FB0042A2F88012EFF31181902383F3A8
:1080D0001288B2F8805292F8823243EA45030025B2
:1080E000C9B29BB282F8825281F311881A0A94F8BD
:1080F000441582EA13125A4001B1D2434C2505FBC4
:1081000000451B019BB202F00F021A43D4F8484508
:10811000D5F8C8020121A047D5F8C412B5F88C42A1
:10812000CA88D5F8C0322243CA8058601A6842F023
:1081300001021A6038BD03F1010C0CF0030CAC45D0
:10814000BDD01A4404EBC202024492F8F114002993
:10815000B5D04C2303FB0043012283F88222AEE713
:10816000D019002010B584464FEA810E102312F476
:10817000004F14BF0E2407245200013BCCF80040EE
:1081800092B2F444F3D100EB81128C01035142F816
:108190002130122010BD00BF10B584464FEA810E79
:1081A0000424130B03EB430318331201013CCCF8F6
:1081B000003092B2F444F4D100EB01130A01845070
:1081C00043F82140062010BD704700BF704700BF34
:1081D000034B00EB400003EBC00393F85D057047D1
:1081E000D0190020064B93F80C26824283BF00EB87
:1081F000400003EBC003D3F860050020704700BFC8
:10820000D01900203CE700BF072808D8044B03EB37
:10821000401393F82C2612B1012283F812267047DE
:10822000D0190020072808D8054B03EB4013B3F8FA
:108230001006B0FA80F0400970470020704700BF78
:10824000D0190020054B93F80C26824286BF03EB21
:108250004013D3F81C060020704700BFD01900203F
:10826000002A4FEA014C30B503460ABFE6468E4667
:108270008C4600F1C005002419689A6841EA0C0197
:1082800042EA0E029A60C3E900140C33AB42F3D108
:10829000D0F8C030C0F8C44043EA0E03C0F8C03084
:1082A000C0F8C84030BD00BF30B4C36919690A685E
:1082B00022F001020A609A68B3F80CC01468E26800
:1082C00022EA0C02E260046890F814C020680822D8
:1082D00002FA0CF202403CD1244890F844550220A6
:1082E00000FA0CF06060002D31D0187E012831D0EA
:1082F000D3F8A0100131C3F8A010EFF31180502182
:1083000081F312885C68DD6B216821EA05011D6C30
:108310002943C0B2216080F3118898681969DC6A2A
:1083200000680C601C6B4C605C6B8C609C6BCC6060
:108330004262B3F87C20C2620A68012422430A60C8
:108340001C7683F89D40C2689B891343C36030BC90
:108350007047FEE7D3F8A40083F89D200130C3F8EE
:10836000A4000B6862F300030B60F0E7D019002053
:108370002DE9F043204CD4F81057002D32DD0023B6
:1083800004F214721846AC269846012706FB034CEB
:1083900001339CF8B11701F0FF0E51B9AB4202F165
:1083A000AC02F3D118B194F8C439542B1DD0BDE8F8
:1083B000F0839168B2F80C907046D1F800E0DEF8D6
:1083C0000C1021EA0901CEF80C10D2F810E0DEF80A
:1083D000001021F00101CEF800108CF8B18782F86E
:1083E0009E70DBE70020BDE8F083B4F8CC390133A0
:1083F000A4F8CC39BDE8F083D019002010B40D4C9E
:10840000D4F81037002B12DD002004F2147C014652
:10841000DCF8743003F1C00259600C339342FBD195
:10842000D4F81037013083420CF1AC0CF0DC5DF86D
:10843000044B7047D019002070B5404C04EB40133A
:1084400093F82C3603B970BD94F8E0E494F8E13465
:108450009E454FEA401C0CD003EB430204EBC202E2
:1084600092F8E4546E1E012E4FEA430257D9032DB1
:1084700050D004EB0C00A0F81016EFF311829023FB
:1084800083F3128890F81236B0F8101643EA4103CD
:108490000021D2B29BB280F8121682F3118894F8B0
:1084A0004415D0F828461A0982EA13225A40C1B16D
:1084B000D0F81416646FD2431B019BB202F00F0276
:1084C00001208840134304F1C0015A0013F4004F07
:1084D00093B202D16268024362600C34A142F4D1CB
:1084E00070BDD0F81416646F1B0110319BB202F0FE
:1084F0000F0201208840134304F1C0015A0013F415
:10850000004F93B202D16268024362600C34A14210
:10851000F4D170BD5D1C05F003057545A9D0134469
:1085200004EBC303034493F8F1140029A1D004EB36
:108530000C03012283F812269BE700BFD01900200C
:10854000704700BF704700BF024B03EB401393F826
:108550002D067047D01900204368826C10B49A61D0
:10856000EFF31182502383F312884168C46B0B68C8
:1085700023EA0403446C2343D2B20B6082F31188D4
:10858000D0E907418268036912681C605960D0E92C
:1085900009419C60D960B0F85C10D16200235DF89D
:1085A000044B0376704700BF026890F814C011684E
:1085B000022303FA0CF3194200D1704710B4074CA0
:1085C00041684FF0000C84F8D8C908686CF30000CB
:1085D00008605DF8044B5360704700BFD01900205D
:1085E0000B4890F8D91989B101EB4101002310B46F
:1085F000490000F24C501C4650F82320063302B1CB
:1086000014608B42F8D15DF8044B7047704700BF8F
:10861000D01900200B4890F8D91989B101EB41011C
:10862000002310B4490000F24C501C4650F823209F
:10863000063302B114608B42F8D15DF8044B7047E9
:10864000704700BFD01900201E4B1B78002B38D17B
:10865000F0B51D4C94F8D92992B31C4D04F24C5E30
:10866000184607E094F8D9295EF8181B01339342A5
:10867000086025DA9EF81020002AF3D0DEF80410F6
:108680008A0AA2F58012532A05EB020CEAD89CF85C
:1086900010200E2AE6D8EFF3118C502686F31288AC
:1086A0002C274E6A07FB02420136C2F8046A4A6967
:1086B00042F001025FFA8CFC4A618CF31188D1E729
:1086C000F0BD704700000020D019002014440708B6
:1086D00000EE100AB8EE400A704700BFBCEEC00AB8
:1086E00010EE103A98B27047704700BF704700BF55
:1086F000704700BF704700BF01207047094A0A4B0E
:10870000D2F8782CD3F84C05526AD3F8501592F869
:108710005330012B08BFB2F85030A0EB010008BF66
:10872000C0187047D0190020C82A0020012380F803
:108730005130704710B4EFF31181802383F3128816
:108740000C4AC9B2D2F85435D2F85845D2F854057B
:10875000D2F8582581F31188904203F1FF33A3EB3F
:1087600004038CBF0020012003EBC0205DF8044B04
:10877000704700BFC82A0020074BD0F89C105B68E8
:10878000D0F8A8205B1A9A42B8BFC0F8A8300123DD
:1087900080F8D43000207047001000E003689A6928
:1087A000D10508D54FF4807213218177DA611A68F8
:1087B00022F080021A609A69920508D54FF400727F
:1087C00013218177DA611A6822F080021A609A69AF
:1087D000510508D54FF4806213218177DA611A6858
:1087E00022F080021A609A69120508D54FF40062DF
:1087F00013218177DA611A6822F080021A609A697F
:10880000D10408D54FF4805213218177DA611A68B8
:1088100022F080021A609A69920408D54FF400523F
:1088200013218177DA611A6822F080021A6070479A
:10883000194BD3F85C15D3F860258A1A322A05DC67
:10884000D3F874258A1A002A11DC7047D3F864150E
:1088500049B193F870258888096802F00102120175
:1088600000FA02F28A610022C3F874257047D3F837
:1088700064256AB11068928810B44469224218BF16
:10888000120432315DF8044B8261C3F874157047ED
:108890003231C3F874157047C82A0020426A806AD2
:1088A000131A58425841704790F84F3830B53BB9C9
:1088B00090F84D1890F84E380124DAB2914200D861
:1088C00030BDB0F8565804FA03F22A43A0F85628EF
:1088D0000133F2E70379024613F0010005D0D369B2
:1088E000D068116A01385B1A1840704710B50379D7
:1088F000DB07044601D4002010BDFFF7EBFF002882
:10890000F9D0236A6269D05C236AE2680133B3FB61
:10891000F2F102FB1133C0B22362EDE703799B074A
:108920000AD5436A8269D154436A02690133B3FBB1
:10893000F2F102FB113343627047704701717047D7
:108940000379024613F0020007D0536A1069916A56
:1089500001385B1A0340DBB2C01A7047074AD2F8ED
:1089600064354BB192F870259988186802F00102BD
:10897000130101FA03F3836100207047C82A002025
:108980004FF40070034B1060D3F880350B6000206B
:10899000704700BFC82A00200020704701207047A0
:1089A000012070470020704710B41C6994420CD31A
:1089B00094460A4661448C42996938BFA4EB0C0284
:1089C00061445DF8044B6BF0C1BA5DF8044B70472D
:1089D000012380F829300020704700BF08B5034606
:1089E000426AC06B996B02445A6201B18847002009
:1089F00008BD00BF036B1B681B6A5B685B7802469F
:108A000013F0010008BF82F82900704782634162B9
:108A1000704700BF043070470C4B93F8B425D3F86F
:108A2000B0150244D2B283F8B42593F8B4250144BA
:108A30001206C3F8B01505D593F8B42582F080026C
:108A400083F8B425024B01225A707047C82A0020CF
:108A5000000000202DE9F047154FD7F8B855ED0A72
:108A600020D00026B14607F2FC587419D7F8BC355F
:108A70001048D3F828A0C7F8F49504EBD474641018
:108A800010234246E102D0470F280BDD0A4B03F1C9
:108A9000100153F8042B013207D18B42F9D125463E
:108AA000B542E2DCE802BDE8F087661CF8E700BFEB
:108AB000C82A002084300020C430002030B585B0A2
:108AC00068465DF097F91148114AD0F8FC10009BF8
:108AD000104D4FF0604441F08071C0F8FC1000214F
:108AE00000F1C840C4F8B05FA0F56500516011689E
:108AF000094CA0F67D60A0FB030341F001019B0C33
:108B0000C4F80C36116005B030BD00BF00ED00E0C8
:108B1000001000E055CEACC5C82A00202DE9F84F62
:108B20000130884C884D01F1FF385FFA80FB102638
:108B3000012762F0CDFD4FF4FA794FF0E0214FF4B8
:108B40007A7C6B68C3F30803002B40F0D280EFF30C
:108B50001183002B40F0CD80D4F85C358869D4F8BF
:108B60005C259342F8D1D4F814269042F4D8D4F876
:108B70000C260CFB02FEAEEB000EBEFBF2FE0CFB65
:108B800003EE6B68C3F30803002B40F09280EFF311
:108B90001183002B40F08D80D4F85C358869D4F8BF
:108BA0005C259342F8D1D4F814269042F4D8D4F836
:108BB0000CA60CFB0AF2121AB2FBFAF20CFB03230E
:108BC000A3EB0E03B3F57A7FDBD3B9F10109B8D17A
:108BD00058464FF47A7963F033FA4FF0E021CC46EF
:108BE0006B68C3F30803002B40F09780EFF3118309
:108BF000002B40F09280D4F85C358869D4F85C256D
:108C00009342F8D1D4F814269042F4D8D4F80C2624
:108C10000CFB02FEAEEB000EBEFBF2FE0CFB03EE05
:108C20006B68C3F3080323BBEFF311830BBBD4F8CA
:108C30005C358869D4F85C259342F8D1D4F81426C1
:108C40009042F4D8D4F80CA60CFB0AF2121AB2FB2C
:108C5000FAF20CFB0323A3EB0E03B3F57A7FDFD309
:108C6000B9F10109BCD1B8F10108BFF462AFBDE8A8
:108C7000F88FEFF3118386F31288D1F818A00A69F0
:108C8000D20344BFC4F81076D1F818A0D4F85C051C
:108C9000D4F81026DBB283F311880244D4F80C0612
:108CA0000CFB00F3A3EB0A03B3FBF0F30CFB023362
:108CB000D1E7EFF3118386F31288D1F818A00A697F
:108CC000D20344BFC4F81076D1F818A0D4F85C05DC
:108CD000D4F81026DBB283F311880244D4F80C06D2
:108CE0000CFB00F3A3EB0A03B3FBF0F30CFB023322
:108CF00066E7EFF3118286F3128888690B69DB035C
:108D000044BFC4F810768869D4F85C35D4F810E60E
:108D1000D2B282F31188734429E7EFF3118286F30C
:108D2000128888690B69DB0344BFC4F81076886930
:108D3000D4F85C35D4F810E6D2B282F311887344CB
:108D400064E700BFC82A002000ED00E02DE9F043F1
:108D5000144CDFF8549083B004F520764FF00208ED
:108D600002E00834B4421AD094F90650002DF8D12C
:108D7000276807F13F4303F57E0309EB932308348B
:108D800093F8640063F0A6FD34F8041C0123CDE9D8
:108D900000582A46384665F0B3FCB442E4D103B02B
:108DA000BDE8F083D01900201444070810B504462C
:108DB00069F014FB81B22046BDE81040FFF760B9AE
:108DC00010B5044669F00AFB81B22046BDE81040A8
:108DD000FFF732BB38B50B4D00EB400005F24C53AA
:108DE00003EBC00393ED027AD3ED037AE7EE007A4A
:108DF000C4002544B0EE670A69F0F0FAD5F84C35A6
:108E0000186038BDD01900202DE9F0411348144DE9
:108E10004FF4257200216BF0D1F84FF00008A5F156
:108E20006C0705F6EC3440F2FB2655F828100023B9
:108E300054F8332091420BD001330F2BF8D100208E
:108E400008F1070863F046FDB045EED1BDE8F081BA
:108E500007EBC30393F85C0CF2E700BFAC230020E0
:108E60008044070810B5084C08485DF033F84022EC
:108E7000002104F5C3606BF0A1F84FF0FF33C4F894
:108E80005836C4F85B3610BDC82A00200E004400D6
:108E900010B54FF44010104C82B05DF01BF8002369
:108EA00001210222CDE9002120461A464FF4C0518B
:108EB00065F026FC636A23F470236362636A43F4FB
:108EC00020236362636A23F470436362636A43F43A
:108ED0002043636202B010BD0000024038B5194B58
:108EE00093F8E02493F8E1349A4226D1164A92F896
:108EF0005F560DB34FF0000C02F5CC62614613686B
:108F000059621868083261F3C710186032F8040C0F
:108F1000D862186840F080001860186861F341005A
:108F20001860DC6832F8020C0CF1010C2043654536
:108F3000D86022F8021CE2DC38BD66F045FF00284C
:108F4000D4D138BDD0190020C82A0020F8B50C4B68
:108F50001D685A69154005405D617DB1094F0126C4
:108F6000B5FA85F4C4F11F0407EB840306FA04F490
:108F7000D3F8180603689847A543F1D1F8BD00BFA0
:108F8000003C0140C82A00202DE9F8430269C3686B
:108F900012EA030828D005460E464FF00047B8FAFB
:108FA00088F327FA03F2D2431B3B2A6108EA02083E
:108FB000042B16D8DFE803F03F32261A0300B36A09
:108FC000002B45D003F1FF3900231FFA89F9B36262
:108FD000746A34B123682046494698476468002C77
:108FE000F8D1B8F1000FDAD1BDE8F8837068002835
:108FF000F7D00368002BF4D0A98E9847B8F1000F82
:10900000CDD1F1E7B0680028EBD00368002BE8D0A1
:10901000298F9847B8F1000FC1D1E5E7F068002823
:10902000DFD00368002BDCD0E96B89B29847B8F138
:10903000000FB4D1D8E730690028D2D00368002BE4
:10904000CFD0296C89B29847B8F1000FA7D1CBE7F0
:10905000EB6A1FFA83F9BBE738B51E4CD4F84C35E0
:1090600073B1D4F85025D4F84C359A4208D0D4F8CE
:109070005035E218013392F8A006C4F8503538BDD7
:10908000154AD2F8782C0023526AC4F8503592F869
:10909000531001F0FF05B1B1B2F8505082F85330CF
:1090A0005DB10E49D01C10F801CF01F801CB01339E
:1090B000B2F850C09BB29C45F5D809484023043211
:1090C00001215EF08BF8C4F84C55D4F84C0500280B
:1090D000CDD1D4E7C82A0020D01900206831002063
:1090E0004426002090F850305A1C0344D2B280F835
:1090F000502083F83C1090F851300BB1132A01D95D
:1091000067F092BB704700BF002280F8512067F0E3
:109110008BBBF8B5A0F668042379DB0727D5657902
:1091200094F84C3805F001073D460BB3D4F84834A9
:109130001A68D36A5B08536294F8503823B1B4F8C4
:109140005A380133A4F85A38636C85F00102597912
:10915000186863F083FF012384F84F38002384F8F4
:109160004D3884F84E38A4F8563884F84C38F8BD99
:1091700094F84F68012E04BF94F84D3884F84E38A7
:109180002046FFF791FB636C4EB9012284F84F280B
:109190007A4059791868BDE8F84063F05FBF002253
:1091A00084F84F283A46F4E770B5A0F66804A1F1B8
:1091B0002903666C334D30680022302B426231D86F
:1091C00095F8A03E95F8A11E0133DBB2012B85F87E
:1091D000A03E09D9B4F8563885F8A02E5B08A4F84B
:1091E00056384B1C85F8A13E95F8A12E0023082A7D
:1091F000A4F8583815D185F8A13EB5F8A23E013340
:109200009BB2032BA5F8A23E08D92379DB0705D52D
:10921000E36A94F856084BB3216B98470023A4F8EF
:10922000563870BD5B396C290CD8B4F8563885F8BF
:10923000A02E5B0843F08003A4F8563895F8A13EB1
:109240000133CFE794F85138002BCDD1012285F8B6
:10925000A03EA5F8A23E802384F85128A4F85638F1
:10926000717985F8A12E63F0F9FEBDE7E3696269C3
:10927000D054E369E2680133B3FBF2F102FB11332E
:10928000E361CBE7C82A002070B5094C05460926E2
:10929000013E00D170BD94F9000019F0C5FB031E1A
:1092A00004DBEA1861781172A278EA540434EFE71B
:1092B000E45007082DE9F843DDF820800F461546F5
:1092C0000021202204461E466AF078FEB8F1000F05
:1092D0000CD0D8F80030E3811B0C2382D8F804307E
:1092E000B8F80A20E3821B0C62822383384667F0B9
:1092F00097FBEB0619D4431EB8B107EB000C01E055
:10930000013B12D31CF801EDBEF12E0FF8D1C01AAB
:10931000421E032AA8BF0322082B03F10109A8BF9C
:1093200008239046B9441A4606E008280246B94682
:10933000A8BF08224FF000084FF0203339462360C1
:10934000636020466AF002FE04F10800154B238199
:109350004246494683706AF0F9FD611EE21D11F82C
:1093600001CFACF16103192B9CBFACF1200C81F84B
:1093700000C09142F3D104F10A0011F8013FA3F1BA
:109380006102192A9CBF203B0B708142F5D1182342
:109390002373330CA382E572099B6683E361BDE806
:1093A000F88300BF202020002DE9F04FDFF84CB4F7
:1093B000DBF85C0585B0CBF86005002B60D013446A
:1093C0000C46174601F5FE7A99461FE0002F64D03F
:1093D000DBF88C35BB4200F0C680DBF88835BB4239
:1093E00000F0F880DBF89035DBF89415BB424BD8E1
:1093F000B94200F27081791A204661F013F9013701
:109400004F4504F500740AF5007A39D0DBF8983539
:10941000BB42DBD8DBF8A855FB1A296BDA0802320D
:109420008A4203F0070602D3AB6B9A420BD9294656
:109430001046029261F0C6F8029A0546002800F034
:109440006A81CBF8A8052B79002B40F01E81D5F856
:109450002880B8F1000F00F057812B6BD21AEB680F
:1094600006EBC20203EB422220462B464FF400716A
:109470000137C0474F4504F500740AF5007AC5D19D
:10948000002005B0BDE8F08FB942B4D94FF40072A6
:10949000002120466AF092FDB1E74FF40072394690
:1094A00020466AF08BFD802384F8BE310C2384F8BB
:1094B000C231DBF88815C54ADBF88035C4F8C6111F
:1094C0009142C4F8CA3100F30B81C14AC14D82FBFD
:1094D000010285FB01050A44C817C0EB6212C0EB0C
:1094E0002530BD4D84F8C10185FB0265C2EB8216B3
:1094F0008010891B013120F03F0015440843D1172B
:10950000C1EBE5110A4484F8BF21B04A84F8C001D8
:10951000013B934200F3F080AD4AAE4882FB031258
:1095200080FB03101A44D917C1EB6212C1EB203142
:10953000A94884F8C51180FB0250C2EB821589103E
:109540005B1B013321F03F0110441943D317C3EBD8
:10955000E0131A4484F8C41184F8C3214AF6552351
:10956000A4F8FE314BE74FF0FF3384F8EC3184F878
:10957000ED3184F8EE3184F8EF31522323706370BB
:109580006123A37084F8E7314123E37084F8E63166
:109590007223002584F8E43184F8E531DBF8A03546
:1095A000C4F8E8314FF4F0722946201D6AF006FD38
:1095B000552384F8FE316FF05503C4F8F051C4F818
:1095C000F451C4F8F85184F8FC5184F8FD5184F842
:1095D000FF3114E74FF40072002120466AF0EEFCE0
:1095E0007E4B03CB45F6EB0323809023C4F8071092
:1095F000A37002220821F823C4F8030061732274C7
:109600006375DBF880352273A27384F82C20DBF8B5
:1096100088259B1A2362DBF89025DBF894359B1A8A
:1096200063620023E372E3736377A377E37784F8DD
:109630002D3084F82E3084F82F3084F83130684B88
:10964000A361684BC4F842303E232377012384F89A
:109650003030654A802384F8403084F846104AF65A
:109660005521A4F8FE1103CA604BC4F84700C4F8A2
:109670004B1003CB1388A4F84F309378C4F85200F2
:10968000C4F8561084F85130B9E64FF40072002146
:1096900020466AF093FC002E44D12B6C04F1200884
:1096A000002B7BD02B6B52491122CDE9006620465E
:1096B000FFF700FE2B6C1A6C002A7ED01B6B4D4905
:1096C000CDE9006640461122FFF7F4FD04F14008A1
:1096D0004FF4E0736DE0F91A204660F0A3FF8EE6C8
:1096E000FF2284F8C1214FF6FF72A4F8BF21374A48
:1096F000013B93427FF710AFFF2384F8C5314FF64B
:10970000FF73A4F8C33129E741464FF400722046A5
:109710006AF054FC73E6384A231F43F8042F9A4535
:10972000FBD16CE6D5E910253301002A43D0023B7A
:10973000002D3FF464AE013BAD6CF9D1A0464FF46F
:109740000073002D3FF45BAECDE9027A08EB03060F
:10975000A24608E00024CDE900C4FFF7ABFDAD6CE4
:10976000BDB1B04515D02C7929682B6B404605F169
:109770001C0C112208F12008002CEBD16A792C690D
:1097800042F02102CDE900C4FFF794FDAD6C002D3D
:10979000E7D15446029FDDF80CA030E6CDE9006623
:1097A0003346DBF8841508222046FFF783FD4FF48B
:1097B000F0736D6CC5E7013BBAE7CDE900660D4972
:1097C000334640461122FFF775FD7FE7FF03FB009C
:1097D00083200882975545418180808090E6070864
:1097E0003F00FF0029940E0D9CE60708A8E6070835
:1097F00088E607088CE60708DEADBEEFC82A002021
:1098000038B590F83430012B044608D090F8290080
:1098100008B9012038BD002384F8293038BD006B19
:1098200003681A7B92B994F82930002BF1D00A4DC5
:109830000A49022305F6A46256F0B2FD95F8A53E4A
:10984000D84300F0010003F00103E5E71B6A002B99
:10985000E9D0002038BD00BFC82A00200400002045
:1098600038B5044694F83430012B09D094F82930E7
:1098700013B1002384F82930012038BD1B6A23B1BD
:10988000206B03681A7B002AF8D194F82930002B4A
:10989000F2D0084D0849022305F6A46256F080FD77
:1098A00095F8A53E03F00102DB0784F82920E3D5F3
:1098B000D8E700BFC82A002004000020F0B5224CE1
:1098C000224A234B95B0054604F11000CDE9000271
:1098D000049304F114000023CDE90503CDE90E3310
:1098E0001C4A09920B9304F10802109313931193ED
:1098F0002B6B95F828700A921868012302228DF8C4
:109900000C3007938DF820308DF834308DF84830C6
:109910003B1D02920E460C9364F056FF8FB1330E3E
:1099200063720A34320C330A22706370A670286B9B
:10993000694656F07BFD2B6B186864F045FF15B047
:10994000F0BD0934EEE700BF0000002070390020B0
:10995000F5890008D189000810B5044694B050225A
:10996000064968466AF0F2FA206B694656F05EFDD9
:10997000236B186864F028FF14B010BD0451070869
:109980002DE9F0410446006B00681E460F469046E4
:1099900064F01AFF94F82830606A002B37D0244D09
:1099A000030E6B76052205F11A0398702A65020CE6
:1099B000000A58701A703B68EB650020D8F8003038
:1099C0006B66012EE363686726D0022E1DD1D8F89E
:1099D0000420E866796885F868002967134415490A
:1099E000AA670120E36385F87C00C5F88010124B5C
:1099F00094F82920206BA3F11401002A08BF19460E
:109A000056F014FDA36B73B1E06BBDE8F0810B4B16
:109A10000422A3F11905C8E7064B85F86860C5E97B
:109A20001B30A867E3E7236B186864F0CDFEEBE713
:109A300000000020DD89000834000020190000200B
:109A400000B583B041620192049A009382630123BE
:109A50006A4601A9FFF794FF03B05DF804FB00BF5D
:109A600010B4EFF31182102383F312880A4BD3F85A
:109A70005C154FF0E0200131C3F85C158169C3F833
:109A800014160024C3F810460369D3B283F3118877
:109A90005DF8044B704700BFC82A002010B4EFF3F4
:109AA0001181102383F312884FF0E022C9B2946928
:109AB000136913F4803F0D4B1EBF0120C3F810063D
:109AC0009469D3F85C05D3F8102681F31188D3F894
:109AD0000C1602444FF47A7000FB01F31B1B5DF877
:109AE000044BB3FBF1F300FB02307047C82A00209F
:109AF000264B5B68C3F3080310B4FBB9EFF3118383
:109B0000E3B9234B4FF0E02CD3F85C25DCF81800C8
:109B1000D3F85C158A42F7D1D3F814168842F3D8EB
:109B2000D3F80C464FF47A7101FB04F3181AB0FB1A
:109B3000F4F05DF8044B01FB02007047EFF3118174
:109B4000102383F312884FF0E022C9B2946913699D
:109B500013F4803F0E4B1EBF0120C3F8100694691A
:109B6000D3F85C05D3F8102681F31188D3F80C16CE
:109B70004FF47A73024403FB01F0001B5DF8044BC1
:109B8000B0FBF1F003FB0200704700BF00ED00E006
:109B9000C82A00202DE9F04FBB4D95F8443587B019
:109BA0001BB9012007B0BDE8F08FB84CB849D4F814
:109BB0005C25B84BDFF8F092A1FB02125209A3FB1F
:109BC0000213DB0803EB8303A2EB430395F80C2697
:109BD000029204F6AC64DAB2059204EB830705F551
:109BE000C26B4FF0000A029B9A4500F03681DBF809
:109BF000183093F89E20002A40F02181D3F8942059
:109C0000DBF80410D3F8988003920191FFF770FFFE
:109C10000199A14B039A95F8C4E993F89CC104906B
:109C2000890001F1085108F1806001EB42113938D7
:109C3000BEF1540F01EB801001EB8C1301D1A5F89C
:109C4000CEC9984240F286811A68002A00F07B81D2
:109C50001A6C002A00F09081D3F88020002A00F0CE
:109C60008D81D3F8C02003F58073002AE9D1591AF9
:109C700098424FEAA11240F26D81A8EB02014529FA
:109C80004FF0000828BF45214046019403EB8111A5
:109C900044469446F04603930DE01A6C002A40F0C7
:109CA0000581D3F88020002A40F03181D3F8C0200C
:109CB00003F580732AB9994206D91A68002AECD0B4
:109CC0004033994200F2F680C646A046B8F1110F23
:109CD000019C624640F24681D8F1150100F14281B3
:109CE0006E4B1E46D3F898309C4538BF3346049ED1
:109CF00038BFC3F89820684BD3F8A031F21A002A75
:109D00001BDB03F5F42303F590739E4288BF3346B3
:109D1000614A88BF0533C2F8A031604B5E4AD3F870
:109D20009830052B86BF053BDBB2002382F89C31BF
:109D30005A4A4FF0FF33C2F8983041B1C8F11408C5
:109D4000012300FA01F103FA08F343EA0100544A3F
:109D5000C0F3C43302EB83031646D3F8401D00F072
:109D60001F0302EB8303D3F8402D42EA0132C0F314
:109D7000441106EB8101C0F3842306EB8303D1F881
:109D8000401DD3F8403D42EA011141EA032181EA36
:109D9000112383EA131303F00F023F4BD3F89C30D7
:109DA0000F2A03F1010316D1B1F5803F13D2BEF1A2
:109DB000540F4FEA111104D1B5F8C8290132A5F8A2
:109DC000C829354AB1F5606FC2F89C3000F0DE80DA
:109DD000A9F80C1011E0BEF1540F04D1B5F8C82950
:109DE0000132A5F8C8292C4AC2F89C30D2F8983024
:109DF0000133C2F898304FF6FF7194F85830059847
:109E000083420CD0BA6823689B1A23603A6B63685C
:109E10009B1A63600023BB603B6384F8580023688F
:109E200001332360BB680133BB604FF6FF73994277
:109E300005D16368013363603B6B01333B630AF117
:109E4000010ABAF1080F04F15C0407F15C0709F19B
:109E500014090BF1200B7FF4C6AED5F810270E497C
:109E60000123002A81F898317FF79BAE0D4BAC217E
:109E700001FB0232002183F89E10AC339342FAD1E9
:109E8000012007B0BDE8F08FD0190020C82A0020BB
:109E90001F85EB51CDCCCCCCC03B00200000002076
:109EA00014440708E4200020543C002080339942E9
:109EB0007FF60AAF039AA3EB020E4FEAAE1E3B4AAF
:109EC0000EF1010E82FB0E62A2EBEE72012AB8BF08
:109ED000012200FA02FE14440120013A904040EAB7
:109EE0000E009E46DEF800209AB1DEF84020002ADF
:109EF00046D0DEF88020002A45D0DEF8C0200EF5DE
:109F0000807E42B17145EDD803937346D3E6C033EA
:109F1000D7E60EF1400E7145F6D9AEEB0303234AA6
:109F20009B11013382FB0362A2EBE373012BB8BFE9
:109F3000012398401C440122013B9A40734603933D
:109F400010437346B7E64033591A98424FEAA112BC
:109F50003FF693AEBCF1000F04D0154B0CF1FF3C63
:109F600083F89CC1BEF1540F7FF469AFB5F8CA39CC
:109F70000133A5F8CA3962E7803378E6C03376E664
:109F80000EF1800EC7E70EF1C00EC4E795F8E1347C
:109F900003EB430305EBC303534493F8F1340D2B58
:109FA0007FF416AF802389F81E3026E756555555A5
:109FB000C03B002070B51F4C94F8E02494F8E134C5
:109FC0009A4232D1D4F81057002D11DD1A4894F876
:109FD0004465002406B3037E012B20D00269136878
:109FE000013443F00103A54200F1AC001360F1D14C
:109FF000FFF77EFD114BD3F8A441002C0BDD03F5D8
:10A00000D47303EBC40419689A88C8680833024300
:10A01000A342CA60F7D170BDFEF79EFADEE70023C7
:10A0200080F89C30FEF798FAD8E765F0CDFE00285E
:10A03000C8D170BDD0190020E4200020C03B002012
:10A040002DE9F04FD0F80090057DD9F800304FF0A1
:10A05000020A0AFA05F52B4283B002D103B0BDE82B
:10A06000F08FC169DFF888B29F4B4FF04C0808FBB6
:10A0700001B804465868D8F88832B8F88C221F68AE
:10A08000D8F8C062FB6823EA0203984AFB60C2F872
:10A09000C801336823F0010333609BF8443523B9CA
:10A0A000C9F8045003B0BDE8F08F304601915BF071
:10A0B0001FFF8E4A0199012388F8AC32D2F8D031C3
:10A0C000002B00F005813B6823F080033B604C23AC
:10A0D00003FB01B34FF0FF3093F8BC32F862062B5C
:10A0E0002FD8DFE813F0CD002E00A5002E000700CA
:10A0F0002E0083003B6A23F480733B624C2303FBF6
:10A1000001B33C6A93F8BD0260F349243C623C6AA7
:10A11000C0F3400060F3CB243C62F86993F8BE4280
:10A1200064F30100F86193F8BF02FB6960F3071361
:10A13000FB61FB6923F00C03FB613B6A43F4807312
:10A140003B624C2303FB01B331684BF6EF742140B3
:10A150000024A3F8A04231603068B3F8A012014394
:10A160003160316893F8A90260F30D3131603168D4
:10A1700093F8A70260F38B213160316893F8A6024F
:10A1800060F309213160316893F8A50260F3C711CB
:10A190003160316893F8A40260F38611316093F85E
:10A1A000A802316860F345113160B3F8A20271680A
:10A1B00060F30F017160D3F89802D3F8C012B06059
:10A1C000D3F89C02F06016204860086840F0010057
:10A1D0000860D3F88812B3F88C3209684248CC681A
:10A1E0002343CB604368C2F8CC3159E73B6A23F480
:10A1F00080533B624C2303FB01B3386A93F8BD42A2
:10A2000064F34D303862F86993F8BE4264F3092074
:10A21000F86193F8BF02FB6960F30F33FB61FB69E0
:10A2200023F44063FB613B6A43F480533B6288E75D
:10A230003B6A23F010033B624C2303FB01B33C6AEF
:10A2400093F8BD0260F345143C623C6AC0F34000E1
:10A2500060F3C7143C62B86993F8BE4264F3092006
:10A26000B86193F8BF02BB6960F30F33BB61BB6990
:10A2700023F44063BB613B6A43F010033B6260E739
:10A280003B6A23F001033B624C2303FB01B33C6AAE
:10A2900093F8BD0260F341043C623C6AC0F34000A5
:10A2A00060F3C3043C62B86993F8BE4264F30100F2
:10A2B000B86193F8BF02BB6960F30713BB61BB6968
:10A2C00023F00C03BB613B6A43F001033B6238E7B8
:10A2D000FFF70EFC054A257DD4F800900199C2F8DD
:10A2E000D0010AFA05F5EEE6001000E0C03B0020C0
:10A2F000D0190020494B5B68C3F308032DE9F043F4
:10A300000546002B65D1EFF31183002B61D1444B3F
:10A310004FF0E024D3F85C25A069D3F85C158A429D
:10A32000F8D1D3F814168842F4D8D3F80C664FF459
:10A330007A7101FB06F4241AB4FBF6F401FB024423
:10A34000364E10274FF0E02C4FF47A7E4FF0010884
:10A350007268C2F30802E2B9EFF31182CAB9D3F806
:10A360005C25DCF81800D3F85C158A42F7D1D3F8E5
:10A3700014168842F3D8D3F80C960EFB09F1091A8B
:10A38000B1FBF9F10EFB0212121BAA42E0D3BDE8A9
:10A39000F083EFF3118287F31288DCF81800DCF801
:10A3A0001010C90344BFC3F81086DCF81800D3F8B6
:10A3B0005C95D3F81016D2B282F311884944D3F8D1
:10A3C0000C960EFB09F2121AB2FBF9F20EFB0122F7
:10A3D000DAE7EFF31181102383F312884FF0E022C4
:10A3E000C9B29669136913F4803F0D4B1EBF01205B
:10A3F000C3F810069669D3F85C05D3F8102681F3EC
:10A4000011880244D3F80C064FF47A7101FB00F472
:10A41000A41BB4FBF0F401FB024491E700ED00E063
:10A42000C82A00202DE9F0473E4B3F4D471E10261D
:10A430004FF0E0204FF47A7C4FF001086A68C2F3D5
:10A440000802002A59D1EFF31182002A55D1D3F81E
:10A450005C258469D3F85C158A42F8D1D3F81416C8
:10A460008C42F4D8D3F80C160CFB01FEAEEB040EB4
:10A47000BEFBF1FE0CFB02EE6A68C2F30802FAB9F9
:10A48000EFF31182E2B9D3F85C258469D3F85C1547
:10A490008A42F8D1D3F814168C42F4D8D3F80C962B
:10A4A0000CFB09F1091BB1FBF9F10CFB0212A2EB49
:10A4B0000E02B2F57A7FDFD3013FBFD2BDE8F0874D
:10A4C000EFF3118286F3128884690169C90344BFDE
:10A4D000C3F810868469D3F85CA5D3F81016D2B2FD
:10A4E00082F31188D3F80C9651440CFB09F2121B2D
:10A4F000B2FBF9F20CFB0122D9E7EFF3118186F3ED
:10A50000128884690269D20344BFC3F81086846943
:10A51000D3F85CE5D3F81026C9B281F311887244F0
:10A52000A0E700BFC82A002000ED00E030B50C46CF
:10A5300083B00546D8B1036803F13F4303F57E03BA
:10A540009B0A0C4A134493F8640062F0C3F9C4F305
:10A55000810204F00303CDE90032C4F34113A9885A
:10A560002868C4F3001264F0CBF803B030BD4FF09C
:10A57000FF33E6E71444070800B1D7E7704700BF90
:10A5800070B50E4C94F80C66B6B104F5C2640025A3
:10A5900004E00135B54204F120040DD0237F002BE7
:10A5A000F7D0E0680028F4D0217D0135FFF7BEFF29
:10A5B000B54204F12004F1D1012070BDD019002072
:10A5C00038B50409013C072C18D80E4D00F00F03D4
:10A5D00035F8140040FA03F212F0010210D0012203
:10A5E00002FA03F3013B1840254469F0C9FE95F8CF
:10A5F000C03D054A034402EBC30038BD002038BD0E
:10A60000104638BD14440708D019002008B51D2095
:10A61000FFF7D6FF10B190F9063053B11E20FFF7B7
:10A62000CFFF10B190F9063003B108BD5523C380A8
:10A6300008BD5523C380F1E770B50268017D04466B
:10A64000022310688B40184206D1106808238B4003
:10A65000184218BF536070BDE569536004238B40F6
:10A660005360EFF31183502282F31288286C026842
:10A67000D2070DD5DBB283F3118895F86C3023B186
:10A6800095F87D3003F0FF0613B32268217DDCE7E7
:10A69000426892B2A2B96E6AA96A8E4232D0AE6A9C
:10A6A000A9693144C1606E6AA96A8E4222D8AE6A35
:10A6B0002969891B89B24160AA62002285F86C2051
:10A6C000026842F00102DBB2026083F31188D4E732
:10A6D00095F87A00FFF774FFAB6EDA68012166F334
:10A6E000C302DA6085F87D100028CED02821FFF75C
:10A6F0001DFFCAE76A6AA96A521A92B242606A6A80
:10A70000AA62DAE7012285F86C20B3E770B51B2056
:10A71000FFF756FF08B12923C3801C20FFF750FF25
:10A7200008B12923C380FEF7B3FB2D482D4E2E4CD4
:10A730005BF0D0FB60F0F8F90022022143205BF0CF
:10A7400009FF5DF0CBFD294901F580534FF0A04092
:10A750000122C1F8700C83F8342683F84126826BFD
:10A7600042F400128263224AC3F838264FF4817201
:10A77000A3F83C264FF401620025A3F8362606F123
:10A78000C40106F19C0283F83F5662F06BFBD6F8D9
:10A79000EC30184AA2FB03239B090421013BE16230
:10A7A000A362636943F001036361236865F30923CE
:10A7B0002360236865F306132360236843F0800356
:10A7C0002360E36843F00103E3602A460221692025
:10A7D0005BF0C0FE236843F00103236070BD00BF3F
:10A7E0000700340000000020004C0140D019002078
:10A7F00040004001D34D621038B55DF06FFD1B2065
:10A80000FFF7DEFE08B12923C3801C20FFF7D8FE26
:10A8100008B12923C380204B93F8D941012C01D0E2
:10A82000012038BD1D4DC3F8DC51FEF731FB1C483B
:10A830005BF050FB60F078F90022022143205BF0CE
:10A8400089FE184A02F580534FF0A04083F8344641
:10A8500083F84146C2F8700C816B134C41F400112F
:10A860008163C3F838464FF48174A3F83C4605F180
:10A870002002002405F148014FF4016583F83F46AA
:10A88000A3F8365662F0EEFA224621464FF0FF302A
:10A890005BF060FE204638BDC03B0020F000002089
:10A8A00007003400D0190020400040011A4B00B5C9
:10A8B000A3F5F07C03F1300EDA794AB15A790CEB4A
:10A8C00082010CEB4202D1F8281289B2A2F84012A0
:10A8D0000C337345F0D100EB40030CEB830393F88A
:10A8E000E72132B10438012893F8E5310BD9052B63
:10A8F00002D900205DF804FB0CEB430CBCF84022AD
:10A9000090B25DF804FB052BF3D80CEB8303D3F86E
:10A91000280280B2EEE700BFA03D0020704700BFD4
:10A92000264A92F85F367BB3D2F86016884235D05B
:10A93000012B29D0D2F86816814233D0022B23D0C4
:10A94000D2F8701688422FD0032B1DD0D2F878167B
:10A9500088422BD0042B17D0D2F88016884227D0FB
:10A96000052B11D0D2F88816884223D0062B0BD0A5
:10A97000D2F8901688421FD0072B05D0D2F898162F
:10A98000814208BF07230AD002EBC30103F1010C87
:10A99000C1F8600682F85FC6184670470023DBB234
:10A9A000184670470123FAE70223F8E70323F6E786
:10A9B0000423F4E70523F2E70623F0E7C82A002082
:10A9C00014F0F2B910B1036882889A62704700BF30
:10A9D00010B1036882889A61704700BF164A174B0E
:10A9E0009042D3F8EC3028BF1046B0EB930F14D24E
:10A9F000B0EBD30F13D2B0EB131F12D2B0EB531F37
:10AA000011D2B0EB931F10D2B0EBD31F0FD2B0EB2B
:10AA1000132F0ED24FF4807070470220704704202D
:10AA20007047082070471020704720207047402052
:10AA300070478020704700BF0051250200000020B1
:10AA400011F001010FD1F0B590F83450C668012D16
:10AA500083B0044608D0B6F1807F02D9012380F884
:10AA6000283003B0F0BD70470A4B076BD3F84C0297
:10AA7000FFF7B4FFB6F1807FB880F2D9B7260A4657
:10AA800084F828502B46384601A98DF8046055F00B
:10AA900087FCE6E7C03B00202DE9F0410546006B4E
:10AAA00094B0144600681F460E4663F08DFE0B946A
:10AAB000274C0C9704F5B4730093264B01930223A3
:10AAC000002202930123CDE90922CDE90E22CDE92E
:10AAD00010228DF80C308DF834308DF84830069205
:10AAE00095F828308DF8202013921B4A049204F523
:10AAF000B07205921A1D07922BB3330E84F86131A0
:10AB000004F5B174330CDFF854802370330A63709A
:10AB1000A670D8F84C022C6BFFF760FF95F829302F
:10AB2000A0809BB16946204655F080FC2C6B2068C4
:10AB300063F04AFED8F85402FFF750FFA080384671
:10AB400014B0BDE8F08104F26114DBE705A9EAE77F
:10AB500000000020103E0020F5890008C03B0020C6
:10AB6000D3B20D2B2BD800B5164B4FF0000C06E0DE
:10AB70000CF1010CBCF1200F03F103031CD093F87E
:10AB800000E08645F4D193F801E08E45F0D10E4BFC
:10AB90000E480CEB4C0C02EB4202634400EB8201CA
:10ABA00093F8CA3DC1F8743100F5B67000EB82002D
:10ABB00081F86C315DF804FB00205DF804FB002097
:10ABC000704700BFDC51070814440708000000204C
:10ABD000174A1849D2F8883030B443F47003C2F8E9
:10ABE00088300B6843F001030B600B689B07FCD5B2
:10ABF0008B68104A23F003038B60936813F00C0FEB
:10AC0000C3F38101F9D19160136809480A4D23F01B
:10AC1000867323F4803313604FF41F044FF00063F6
:10AC20005560C2F8A010D46030BC8360704700BF8C
:10AC300000ED00E00038024002300300704700BF22
:10AC400000207047024BD3F87002FDF7A7BD00BF8C
:10AC5000C03B0020024BD3F88C02FDF79FBD00BF24
:10AC6000C03B0020024BD3F8A802FDF797BD00BF00
:10AC7000C03B002030B1036882881B691A4214BFB0
:10AC800001200020704700BF2DE9F04F076889B010
:10AC90003E6907907D6878697168AA6812F0800241
:10ACA000FBD1BB69347D93F80EE006920EF0030EE3
:10ACB000CDF814E093F80DE0326893F8119093F812
:10ACC0000F8001920EF0010A93F80CE05A8902926B
:10ACD0000EF0010E4FF0020CCDF810E093F810E0EA
:10ACE0001A6803920CFA04F40EF0010B44F00C0401
:10ACF000B3F808E05B6809F0030908F003080028CE
:10AD000000F08680019A079EC66146685460047D03
:10AD10000068069A0CFA04F444F00C0444600868D5
:10AD200062F300000860306862F30000306032684F
:10AD300042EA0C0232600A684BF6EF7002400A6089
:10AD40000A6842EA0E020A600A6869F30D320A6074
:10AD50000A6868F38B220A600A68059C64F309227A
:10AD60000A600A686AF3C7120A600A68049C64F3FE
:10AD700086120A600A686BF345120A604A68029CF0
:10AD800064F30F024A60039A8A60CB603268FB6901
:10AD90000240326030681A89024332603268587C5F
:10ADA00060F30D3232603268D87B60F38B22326000
:10ADB0003268987B60F3092232603268587B60F316
:10ADC000C71232603268187B60F386123260187CDA
:10ADD000326860F3451232605889726860F30F027E
:10ADE0007260D3E90023B260F360336843F001037B
:10ADF00033600B6843F001030B606B6843F00103A1
:10AE00006B606B6843EA0C036B6009B0BDE8F08FC0
:10AE1000079AF261019A54600A6860F300020A60BE
:10AE20000A684BF6EF7002400A600A684EEA0202B6
:10AE30000A600A6869F30D320A600A6868F38B22B7
:10AE40000A600A68059860F309220A600A686AF3D2
:10AE5000C7120A600A68049860F386120A600A68DA
:10AE60006BF345120A604A68029860F30F024A6069
:10AE7000039A8A60CB600B6843F001030B600B6898
:10AE800043F002030B606B6843F002036B6009B090
:10AE9000BDE8F08F70B4046890F838506368012200
:10AEA00084F824201A6822F040021A60B0F804C026
:10AEB0002289624516D0BCF5807F6146A8BF4FF459
:10AEC00080710229B8BF02211A6891FAA1F1B1FA82
:10AED00081F122F03802013942EAC10292B21A60CD
:10AEE000A4F808C0027BA17A914209D0196872B314
:10AEF00021F002011960196821F001011960A272A4
:10AF00001A6842F040021A60226A267B9368C3B135
:10AF100000218C4614329C4493680131002BF9D1F6
:10AF200096B18DB1012909D8BCF1070F06D801EB04
:10AF300081018B00226A13441B7B2BB970BC55F036
:10AF4000D7BB0EB1002DF5D170BC55F001BC41F05E
:10AF500002011960196841F001011960A272CFE77E
:10AF60002DE9F041C569002D74D02C68236A1B7B44
:10AF7000002B71D1D4E90467317D6368022202FAA3
:10AF800001F1D6E9006041F00C01EFB1D0F800C04A
:10AF9000D7F804E02CF0010CC0F800C0DEF8000087
:10AFA00020F00100CEF800007160397D8A403968D8
:10AFB00042F00C024A605A6822F002025A605A6853
:10AFC00022F001025A600EE09A681706FCD49A68D3
:10AFD000D2072DD4026822F00102026071605A6823
:10AFE00022F002025A60236A1E7B236A1B69F6B2B2
:10AFF00093B1236A686C1B699847012876D00228B0
:10B000000AD1226A02F11403D2692AB12362236AA7
:10B01000DA691433002AF9D1236ADA6952B9586916
:10B0200008B399692162BDE8F041C3E9052231E71F
:10B03000DA68CCE794F8242014332362002A2ED156
:10B04000002E4CD12846FFF71FFE2B681A6AD169E3
:10B0500000290BDCBDE8F081AB68002B8AD01A68B0
:10B060009B88936186E72062BDE8F081D0695169D1
:10B070009C69002967D0012565736160596980B2B8
:10B0800060810029E6D092693749DB69002A0ABF4E
:10B090000A460121002159735A605881DAE7276A6C
:10B0A0002868BA683B688169002B54D04FF0010CC6
:10B0B00081F80DC04B6093B242694B8152B1C169B6
:10B0C0007A684B81284B002A0ABF1A4601230023C5
:10B0D0004A604B73002384F82430002EB2D0AB6852
:10B0E000002BAFD01A689B889362ABE7236A143BAE
:10B0F00023622B681A6AD16900298DDDD7695169ED
:10B10000D3F818C0B1B186468CF80DE0CCF8041025
:10B11000B9B25F69ACF80A10002F3FF47DAFDB696C
:10B12000926959811049002A04BF00200A465873C9
:10B130005A6071E78E460D494FF0FF0881F814827E
:10B1400001F50571E0E70D460849FF2681F8146214
:10B1500001F5057190E79C46044B4FF0FF0E83F814
:10B1600014E203F50573A3E7883E002000000020E9
:10B1700038B52C4AD0F898305268D0F89010044670
:10B1800073B1501A83420BDC94F88830C4F89020D5
:10B19000012B10D0D4F88C300133C4F88C3038BD7A
:10B1A000D4F89C30C4F890200B44C4F8943094F840
:10B1B0008830012BEED16168201D04F1A005EFF36A
:10B1C000118C102383F3128863681B6A0BB3D4F8C5
:10B1D000A8302A461BB1D3691432002BFBD10B6A6D
:10B1E0006BB1996839B9934209D0196829B15B6884
:10B1F00099680029F7D01433F3E7C3E900055FFA33
:10B200008CFC8CF31188D4F88C300133C4F88C306A
:10B2100038BD0D625FFA8CFC8CF31188FFF73AFEA3
:10B22000B8E700BF001000E00348D0F8283213B19F
:10B2300000F5067018477047000000200348D0F85A
:10B24000543213B100F51170184770470000002008
:10B250000348D0F8803213B100F51C7018477047CE
:10B26000000000200348D0F8AC3213B100F527707D
:10B2700018477047000000200348D0F8D83213B1B7
:10B2800000F5327018477047000000200348D0F8DE
:10B29000043313B100F53D701847704700000020DB
:10B2A0000348D0F8303313B100F5487018477047A1
:10B2B000000000200348D0F85C3313B100F5537050
:10B2C00018477047000000200348D0F8883313B1B6
:10B2D00000F55E7018477047000000200348D0F862
:10B2E000B43313B100F569701847704700000020AF
:10B2F0000348D0F8E03313B100F574701847704775
:10B30000000000200348D0F80C3413B100F57F7022
:10B3100018477047000000200348D0F8383413B1B4
:10B3200000F5856018477047000000200348D0F8FA
:10B33000643413B100F254401847704700000020F5
:10B340000F4B104901382C2202FB0033086BD3F855
:10B3500018220D4B9A4214BF4FF080734FF48003B4
:10B36000184382B00863096B0B400193019BD2F82C
:10B37000003143F00103C2F8003102B0704700BF52
:10B380000000002000380240006402402DE9F04136
:10B39000114C1E4601382C2303FB00440F48D4F8FF
:10B3A0001882804514BF382036200F46154661F0BC
:10B3B00091FAD8F8003143F00103C8F8003194F94C
:10B3C0003002C4F82872C5F30112A909C4F8346226
:10B3D000BDE8F0415BF0BEB8000000200064024010
:10B3E0002DE9F04F964B974F85B007F1A0094FF02C
:10B3F000010A4FF0000BA3F5B676B8460BE00BF14F
:10B40000010BBBF1040F0AF1010A08F1280809F148
:10B41000050900F0828198F80030022BEFD199F9EC
:10B4200003305A1C00F07C81DBB21946844A03EBDE
:10B43000430002EB80008E465FFA8BF20D2B5DD845
:10B440008149002404E00134202C01F1030155D08E
:10B450000F78002FF7D14D789542F4D17B49D6F87B
:10B460001C5204EB44040C44416894F8CA4D8460B7
:10B47000A94204704BD0D6F84852A94200F054813A
:10B48000D6F87452A94200F05A81D6F8A052A942C7
:10B4900000F04F81D6F8CC52A94200F05681D6F880
:10B4A000F852A94200F05A81D6F82453A94200F07C
:10B4B0005881D6F85053A94200F05C81D6F87C53ED
:10B4C000A94200F05A81D6F8A853A94200F05B8146
:10B4D000D6F8D453A94200F06281D6F80054A942AC
:10B4E00000F05781D6F82C54A94200F06181D6F8BB
:10B4F0005854A94208BF4FF00D0C09D00133DBB2FC
:10B50000734500F10C0099D9002300931CE0BC4660
:10B510002C2101FB0CF1771897F93852002DEDD151
:10B520004B4B87F839A20B440CF10100C8F81030DE
:10B53000142387F838320090FFF702FFD7F8403223
:10B540001A6864F306021A6099F90420531C18BFA4
:10B55000D2B23B4B08BF002202EB420014BF94461C
:10B560004FF00D0C03EB80005FFA8BF10D2A5DD8D4
:10B57000354B002404E00134202C03F1030355D0A3
:10B580001F78012FF7D15D788D42F4D12F4B04EB5A
:10B5900044041C44436894F8CA5DD6F81C42856094
:10B5A000A342057056D0D6F84842A34200F0BF80AF
:10B5B000D6F87442A34200F0C580D6F8A0429C425F
:10B5C00000F0BA80D6F8CC42A34200F0C180D6F891
:10B5D000F842A34200F0BF80D6F82443A34200F013
:10B5E000C380D6F85043A34200F0C180D6F87C4314
:10B5F000A34200F0CB80D6F8A843A34200F0C0805D
:10B60000D6F8D443A34200F0CD80D6F80044A3423C
:10B6100000F0C280D6F82C44A34200F0C680D6F8D1
:10B620005844A34208BF4FF00D0E15D00132D2B2DC
:10B63000624500F10C0099D90023C8E90433DEE625
:10B640006C0100208C3E0020DC51070814440708E0
:10B65000180200204FF0000E2C2303FB0EF3F71806
:10B6600097F93842002CE1D1132287F83822524A48
:10B6700087F839A21A440EF10100C8F81420CDE968
:10B6800001020393FFF75CFED7F84072396865F357
:10B6900006013960DDE90010DDE902230029CBD085
:10B6A00057684549D7F800C064F3000CC7F800C0DC
:10B6B000C958137DD8F81020022505FA03F343F08A
:10B6C0000C034B605368D3F800C064F3000CC3F85C
:10B6D00000C0137D126805FA03F343F00C035360B6
:10B6E000D8F81830D8F804201C821027C3E9027457
:10B6F0000C32C3E90024D8F81C304FF480711A6072
:10B700001982C3E90144DC602C4923462246FFF735
:10B710003DFE012388F80C3071E605B0BDE8F08FDE
:10B720000D231946002381E64FF0010CF0E6BE46DA
:10B7300092E74FF0030CEBE64FF0030E8CE74FF06F
:10B74000020CE5E64FF0020E86E74FF0040CDFE650
:10B750004FF0040E80E74FF0050E7DE74FF0050C2B
:10B76000D6E64FF0060CD3E64FF0060E74E74FF026
:10B77000070E71E74FF0070CCAE64FF0080CC7E65A
:10B780004FF0090E68E74FF0090CC1E64FF0080EC4
:10B7900062E74FF00B0CBBE64FF00B0E5CE74FF08F
:10B7A0000A0CB5E64FF00A0E56E74FF00C0E53E7C1
:10B7B0004FF00C0CACE600BF1802002061AF00088F
:10B7C00010B40C4C002304F5607C01E0152B0CD068
:10B7D00003EB430201331CF802108142F6D11444FA
:10B7E00094F982035DF8044B70474FF0FF305DF829
:10B7F000044B7047C03B002030B5134C002304F6C7
:10B80000286C02E001331C2B1BD05CF833508542BE
:10B81000F8D10CEBC30EDD009EF804E08E45F1D1AB
:10B820000A4B02EB42022C4403EB820194F82D4EAA
:10B83000C1F8744103F5B67303EB820081F86C41E3
:10B8400030BD002030BD00BF1444070800000020B8
:10B85000F0B110B504460F4894F804E0002300F559
:10B86000607C01E0152B11D003EB430201331CF87F
:10B8700002107145F6D18318617993F9822320680B
:10B88000D3B20D2B02D8BDE81040B5E7002010BDA3
:10B8900000207047C03B002048B182880449B2FABA
:10B8A00082F208684FF00043D34003430B607047B7
:10B8B000003C01400120FDF749BB00BF0220FDF71D
:10B8C00045BB00BF0420FDF741BB00BF0820FDF7CA
:10B8D0003DBB00BF1020FDF739BB00BF4FF47870AF
:10B8E000FDF734BB4FF47C40FDF730BB38B505465F
:10B8F0001446FEF71BFEAB882A68B3FA83F3C3F144
:10B900001F0303F00701890013F0F80F04FA01F494
:10B910000AD0536A0F2000FA01F123EA01035362AF
:10B92000536A1C43546238BD136A0F2000FA01F1B8
:10B9300023EA01031362136A1C43146238BD00BF7B
:10B9400000B1D3E7704700BF2DE9F047DFF85CA2F4
:10B95000C0EBC0030AEB830384B0D3F85882B8F17C
:10B96000000F08D0D3E998490646002C00F0D98092
:10B9700094F9063013B104B0BDE8F087B9F1000FB7
:10B9800000F0DF8099F90630002BF4D1431CDBB2C4
:10B990001522E371A27189F80730162389F8063061
:10B9A00098F8280060F096FF2046FFF711F8484607
:10B9B000FFF70EF819212046FEF7DEFD1921484653
:10B9C000FEF7DAFD0927332524B9A0E0013D06D0B2
:10B9D00060F048FE2368A28819690A42F6D09A628C
:10B9E00060F0DCFE2368A2889A6160F0D7FE013F18
:10B9F000E9D1332524B991E0013D06D060F032FE53
:10BA00002368A2881B691A42F6D02046FEF7DAFFA7
:10BA100060F0C4FE4846FEF7D5FF60F0BFFE20464A
:10BA2000FEF7D6FF60F0BAFE4846FEF7D1FF60F0A1
:10BA3000B5FE2046FFF71EF900287ED11C2505FB28
:10BA400006A5204695F86A3295F86822002B0CBFAF
:10BA5000162436242146FFF773FF95F86922214604
:10BA60004846FFF76DFFDFF848913C2202FB06F7DE
:10BA7000002109EB0700C5F8700268F09FFAD5F8BD
:10BA800058325C6849F8074068465AF0B3F9B5F88F
:10BA90006C1203985FF0FCF93D4B9C42054655D073
:10BAA0003C4B9C425DD03C4B9C4265D03C2303FB0D
:10BAB00006A3D3F8C023136843F00103136023687F
:10BAC00023F0010323602561236843F4706323603E
:10BAD000A36823F48063A360A3686FF30903A360E2
:10BAE000A36843F40043A3600022114698F92A009A
:10BAF0005AF030FD002298F9290011465AF02AFD2B
:10BB0000236843F00103236035E760F0ABFD013D9E
:10BB1000FBD160F043FE68E760F0A4FD013DFBD17E
:10BB200073E7B9F1000F3FF43BAF99F90630002BF2
:10BB30007FF421AF731CDBB22DE74846FFF79AF87C
:10BB40007CE71523A371431CE37129E713485AF0DE
:10BB5000C1F9134AD2F8203823F40013C2F8203870
:10BB6000A4E710485AF0B6F90D4AD2F8203823F469
:10BB70008003C2F8203899E70B485AF0ABF9084A1D
:10BB8000D2F8203823F40003C2F820388EE700BF33
:10BB90000054004000580040005C004015002000A8
:10BBA000003002401600200017002000C03B00209B
:10BBB000803F00202DE9F047794D05EB0013D3F8C5
:10BBC000B044002C00F0A58093F8BA7406464FEA02
:10BBD0000018384660F07EFE7B09012207F01F073F
:10BBE000013BBA40042B09D8DFE803F09B03A1A76F
:10BBF00095006C494B6923EA02034B6105EB08038E
:10BC0000013693F8B404FEF7DBFCF6B2824610B1BD
:10BC10001223C671837105EB080393F8B504FEF790
:10BC2000CFFC814610B11323C671837105EB080365
:10BC300093F8B604FEF7C4FC074610B11423C6718E
:10BC400083714544504695F8B7242621FFF778FEC6
:10BC500095F8B82448462621FFF772FE95F8B924D6
:10BC600006213846FFF76CFE4F4B9C4276D04F4B77
:10BC70009C4268D04E4B9C427BD04E4B9C4200F085
:10BC80008380636802210B436360636843F00103B0
:10BC90006360E36923F40063E361236823F40043F2
:10BCA0002360236823F480432360236823F48063A4
:10BCB0002360236843F400732360236843F4807394
:10BCC0002360236843F004032360636823F4007354
:10BCD0006360636823F480736360236861F3C50362
:10BCE0002360236823F080032360236823F4006328
:10BCF000236023680B432360236843F00103236020
:10BD00002369072262F30F032361236843F0400392
:10BD10002360BDE8F08723490B6A23EA02030B6224
:10BD20006CE720490B6923EA02030B6166E71D49B2
:10BD30008B6923EA02038B6160E71A494B6A23EAA5
:10BD400002034B625AE71C485AF0C4F81B4AD2F867
:10BD5000203823F48043C2F8203892E718485AF07C
:10BD6000B9F8164AD2F8243823F48053C2F824389C
:10BD700087E714485AF0AEF8104AD2F8203823F476
:10BD80000043C2F820387CE70F485AF0A3F80B4A6A
:10BD9000D2F8243823F40053C2F8243871E700BFE6
:10BDA000C03B002000380240003001400038004015
:10BDB000003C0040003401400E00200000300240F2
:10BDC0000C0024000F0020000D002400F8B50E4CDC
:10BDD00094F80C769FB104F52074C7F10907092582
:10BDE000013D0ED0A6683079FEF7EAFB217DF2799D
:10BDF00008B1FFF77BFDAF4204F14C04F0D1012004
:10BE0000F8BDAB68FFDE00BFD019002070B590F818
:10BE10007A301D09013D072D04460FD81A4E36F819
:10BE2000151003F00F0341FA03F2D20706D590F87C
:10BE30007D20012AD0B205D0012070BD94F87D305C
:10BE40000120FAE7984001382E44084068F098FA3B
:10BE500096F8C03D0D4A034402EBC30552F8332067
:10BE6000AB8810691840E8D0002394F87B2084F850
:10BE70007D300A212846FFF739FDA26ED36843F0D2
:10BE80000803D360D8E700BF14440708D019002086
:10BE900010B40C49D1F8F0341A6822F001021A608B
:10BEA000D1F8F42440F22A4400205C60506211680A
:10BEB00041F0010111601A6842F001021A605DF858
:10BEC000044B7047C03B002030B40B4A0B4B82B090
:10BED000CA25532402EB800200205D625C6201905F
:10BEE00001925D625C620198FF2201605A625A62AF
:10BEF00002B030BC704700BF50280040002800400E
:10BF00002DE9F0478368046C93F8059093F8068058
:10BF10001E68054686B0204659F0EAFF09F1FF3A4F
:10BF2000002385F82C305FFA8AF35F00FFB208F037
:10BF30000208072F0DD8DFE817F0F9000C00020106
:10BF40000C000B010C0008001401F26922F40062DD
:10BF5000F261B8F1000F14D0022B28D84FEA49093A
:10BF600009F1FF395FFA89F80022414630465AF05C
:10BF700043FFBAF1030F00F20381DFE80AF0A59E48
:10BF8000951DA9F10203022BEED84FEA49010239AF
:10BF9000424601F0FE013046A9F103095AF02CFF98
:10BFA000B9F1010F00F28780DFE809F07C044FF05F
:10BFB0000008D9E74FF00608F36923F44073F361F2
:10BFC0004FF0060995F83B30049395F83A30039307
:10BFD00095F83930029395F83830019395F8373059
:10BFE000009395F8363095F835203946304662F0A2
:10BFF00017FBB9F1040F00F0BD80B9F1060F00F096
:10C00000BC800023B3634146012230465AF0F4FE5F
:10C01000072F09D8DFE807F0850880087B08047639
:10C02000F36943F40063F36123684BF6EF71102268
:10C030000B402A842360236813432360236895F808
:10C04000292062F30D332360236895F8272062F3DB
:10C050008B232360236895F8262062F3092323604D
:10C06000236895F8252062F3C7132360236895F8A9
:10C07000242062F386132360236895F8282062F356
:10C080004513236063686A8C62F30F036360D5E92C
:10C090000623A260E360236843F00203236006B036
:10C0A000BDE8F0874FF00408F36923F00303F36160
:10C0B0004FF0040986E74FF00208B36923F4407398
:10C0C000B3614FF002097DE7B36923F00303B36165
:10C0D00095F83B30049395F83A30039395F839304E
:10C0E000029395F83830019395F83730009395F81E
:10C0F000363095F835200021304662F091FA002361
:10C10000736380E7336F43F0080333678CE7F369A9
:10C1100043F00803F36187E7B36943F40063B36155
:10C1200082E7B36943F00803B3617DE7B26922F0A7
:10C130000802B261B8F1000F3FF423AF0CE7B26917
:10C1400022F40062B261B8F1000F3FF41AAF03E7C6
:10C15000F26922F00802F261B8F1000F3FF411AF6A
:10C16000FAE6326F22F008023267B8F1000F3FF4AE
:10C1700008AFF1E60023F36345E70023336442E7A9
:10C1800095F83B30049395F83A30039395F839309D
:10C19000029395F83830019395F83730009395F86D
:10C1A000363095F835203946304662F039FAA6E740
:10C1B0002DE9F04FB84D95F8443589B01BB90120F1
:10C1C00009B0BDE8F08FB54FD7F85C45FDF790FC9E
:10C1D00095F80C360193002B00F05681B04BB14E10
:10C1E000A3FB04235B09A6FB0326F608AE4A06EB75
:10C1F0008606A3EB4606D2F8D03105F52078F1B2D9
:10C2000007F6AC67A0EB030B4446CDF81880059108
:10C21000DDF8048007EB860602F194090025DA4672
:10C220000EE020460135FFF76BFE454504F14C0456
:10C2300007F15C0706F15C0609F1140900F0C980FA
:10C24000BAF1000F03DB236B534500F30381924BDC
:10C250004C2202FB053393F8AC32002BE1D0A368EB
:10C26000A1891A68236C5B681FFA83FCD368CCF140
:10C27000160C23EA0103BCF1070FD360D1D98A4A17
:10C28000A16CD2F89C3007910133C2F89C30002099
:10C29000CDE902580A68049488463146864601234F
:10C2A00006468B461FE058F82350BEF1140F86F067
:10C2B0000106A5EB02022EDC12F1080148BF02F1D3
:10C2C000170109114C1E072A4FF0010200FA01F074
:10C2D00002FA04F440F3B08001339C4540EA0400C4
:10C2E0008E442A4617D39C45DDD8CEF11501CEF1F8
:10C2F000140400294FF0010500FA01F105FA04F4D5
:10C3000009DD002E00F0988001339C4544EA0100CD
:10C310004FF0150EE7D2BEF1150FDDE90258049C6F
:10C320005E4640F08D806149C0F38423C0F344121F
:10C3300001EB830301EB8202D3F8083FD2F8082F08
:10C340001B0243EA021300F01F0201EB8202C0F35A
:10C35000C430D2F8082F01EB80001343D0F8082F27
:10C3600043EA023383EA132282EA121202F00F0236
:10C370000F2A65D1C3F30F134FF6FF7293425FD0BC
:10C38000B3F5606F6AD0A9F80C3097F8582005987B
:10C3900082420CD0B1683A68521A3A60316B7A68BE
:10C3A000521A7A600022B260326387F858003A6805
:10C3B00001323A60B2680132B2604FF6FF729342C6
:10C3C0007FF42FAF7B6801337B60336B01333363C2
:10C3D00027E7354ADDF81880019E0025012382F801
:10C3E0009831C2F8D05103240EE05B00022F03F114
:10C3F000FF331FD90021012201355AF0FDFCAE4266
:10C4000008F14C083FF4DBAED8F8083018684268F1
:10C4100064F30612426098F810105B7911F0020183
:10C4200003F1FF37A3F10202DFD15B00022AA3F17F
:10C430000203E0D8D9B2DEE7DDE90258049C5E468B
:10C44000194AD2F898300133C2F89830B5B14FF696
:10C45000FF739AE7002009B0BDE8F08F0E4991F80C
:10C46000E12402EB420201EBC2022A4492F8F124D9
:10C470000D2A88D1802289F81E2086E707990C486A
:10C48000582267F063FDE2E7074B012283F8982109
:10C49000019AC3F8D02192E6D0190020C82A0020C2
:10C4A0001F85EB51CDCCCCCCC03B002014440708F9
:10C4B000003D00202DE9F0478A46002942D0461869
:10C4C000244ADFF89480471E06F1FF394FF0800EB2
:10C4D000D2F85C5504E0D2F85C355B1B012B34D8F4
:10C4E000EFF3118C8EF31288D2F85435D2F85865D8
:10C4F000D2F85445D2F858155FFA8CFC8CF31188A9
:10C500008C428CBF4FF0000C4FF0010C9B1B03EBD7
:10C51000CC23012BDFD0EFF311848EF31288D2F8F5
:10C52000583517F8015F4344E4B283F8F854D2F861
:10C5300058350133C3F30A03C2F8583584F3118820
:10C540004F45C5D15046BDE8F087C0F101003844E1
:10C55000BDE8F087C82A0020C03B00202DE9F84341
:10C56000124B93F8583F032B01D0BDE8F883104ECF
:10C57000002AD6F85C751446F7DDDFF838900D46D2
:10C580004FF0010821462846FFF794FF241A002C9B
:10C59000054403DCD6F85C35BDE8F883D6F85C3595
:10C5A00089F8F88CDB1B322BECD9DEE7D0190020A0
:10C5B000C82A0020C03B0020344BD3F8783C596A8D
:10C5C00091F85230012B56D170B5314C314AD4F824
:10C5D000FC0C60BBD2F85405D2F85835984221D0F3
:10C5E000D2F85405D2F85835984249D8D2F858357F
:10C5F000D2F854051B1AD2F8542591F8520088B18C
:10C60000B3F5007F28BF4FF400731D46002381F867
:10C610005230214921480A44ABB281215AF0F0FC42
:10C62000C4F8FC5C1E4B6FF001021A6170BDD2F8B9
:10C63000545500F03F032844C2F85405D2F854057D
:10C64000B0F5006F04BF0020C2F854050020C4F804
:10C65000FC0C002BBED1D2F8542591F852000028D2
:10C66000E4D00D4881F852300244BDE870400B48D8
:10C6700081215AF0C5BC0A4B6FF001021A61704764
:10C68000D2F85435C3F50063B5E700BFD0190020D8
:10C69000C03B0020C82A0020B840002044260020CB
:10C6A000004C01402DE9F04FA94DD5F8708CD8F819
:10C6B0001460D8F81820D8F81430DB0785B026D4D9
:10C6C0001640B70744BF0223C8F81430740300F1C2
:10C6D0009880300300F12A81F20400F15F81310774
:10C6E00008D5D5F8783CDB690BB19A489847082300
:10C6F000C8F81430B2040DD4F30640D4F70257D46E
:10C70000B40262D4002EC0F2BB8130056BD405B0F8
:10C71000BDE8F08FD5F8744C8F49D4F800396FF329
:10C720000A03C4F80039D4F8043823F48073C4F839
:10C730000438E368052262F38D23E3604FF040097B
:10C7400001272046C5F8E89DA5F8E27D5AF080FB58
:10C7500000238249A5F8823C2046C5F8889C5AF0FF
:10C7600077FBD5F8783C85F8587F5B680BB1794842
:10C7700098474FF40053C8F81430F306BED5D5F8E7
:10C78000743C9A6922F010029A611A6AC2F343411A
:10C790000229C2F30A1702F00F0200F045820629AF
:10C7A00000F0CA839A69F70242F010029A61A7D595
:10C7B000D5F8783C1B6A13B16648052198474FF4B9
:10C7C0008013B402C8F814309CD5D5F8783C1B6AA5
:10C7D00013B16048062198474FF40013002EC8F8A3
:10C7E000143092DA4CE1D5F8743CD3F80828D1071C
:10C7F00000F13E824FF40063C8F8143005B0BDE884
:10C80000F08FD5F8743CD3F81878D3F81C2817406B
:10C81000BFB203F50061002F3FF45BAF4FF0000A99
:10C82000CDE901864E4C03F5106B5646884608E06C
:10C830007F0806F1010604F12C040BF1200B00F037
:10C840004081F907F4D5D8F81020D8F8343023FA0D
:10C8500006F94FEAC919DBF808305FFA89F949EAA5
:10C86000020909EA030919F0010F40F03E8119F0AD
:10C87000080F1CBF0823CBF8083019F0100F1CBF9D
:10C880001023CBF8083019F0400F1CBF4023CBF821
:10C89000083019F0020F1CBF0223CBF8083019F042
:10C8A000800FC5D0D5F8749CA26AE36AA16909F526
:10C8B000106A0AEB461AA2EB030E8E45DAF818004E
:10C8C00028BF8E4680B20EF10301B0EB910F40F20B
:10C8D000FF8009F5805C0CEB063C039611468B4209
:10C8E00080F0F580A269C91A914228BF114688B22A
:10C8F0000330CE1C8010626A8E464FEA960609D03D
:10C900000023013352F8041BCCF800109842F8D1F0
:10C91000626AE36A72446262DAF8182092B273447F
:10C920009642E36280F0D380A16AD8E7D5F8747CA0
:10C93000D7F81848D7F81C381C40240C07F5006CB1
:10C940003FF4CAAE07F530674FF00009E34610E048
:10C95000D019002044260020B027002050260020B7
:10C9600040260020640809F1010907F120073FF47F
:10C97000B3AEE307F6D5BA68DBF8143002EA030A6F
:10C980001AF0010F40F011811AF0080F40F0D58025
:10C990001AF0100F1CBF1023BB60E3E7D5F8744CEE
:10C9A000D4F8043823F00103C4F804385DF09CFF88
:10C9B0002269C14B102161F38A122261226942F07F
:10C9C000200204F50067226101E0013B02D02269E8
:10C9D0009006FAD404F5106304F52061FF229A60F2
:10C9E000C3F8082220338B42F9D14FF0FF33BB61EB
:10C9F0004FF00113FB617B6943F001037B617B69AD
:10CA000043F002037B617B6943F008037B613B6970
:10CA100043F001033B613B6943F002033B613B6927
:10CA200043F008033B61D4F8003823F4FE63C4F8F4
:10CA300000380023C4F8103BD4F8103B012161F307
:10CA4000DC43C4F8103BD4F8103B182262F3120305
:10CA5000C4F8103BD4F8103B43F0C043C4F8103B7B
:10CA6000D5F8783C85F8581F1B6A0BB19348984756
:10CA70004FF480533107C8F814307FF53BAE30E6F1
:10CA8000D5F8743CD3F8042822F00102C3F8042836
:10CA9000D3F8002E22F00102C3F8002E95F8592F8A
:10CAA000D5F8783C85F8582F1B6A13B183480321C9
:10CAB00098474FF000433005C8F814307FF527AE93
:10CAC00091E6DDE9018630037FF506AE2EE7039E91
:10CAD000BEF1000F7FF4ACAED9F834380122B24079
:10CAE00023EA0203C9F83438A2E6D8F83430012228
:10CAF00002FA06F123EA0103C8F83430CBF8082023
:10CB0000002E72D195F8543F022B7FF4B0AED5F8C9
:10CB1000A41CD5F8883C994240F25082C91A8B4235
:10CB2000C5F8A41C88BF8BB2D5F8942C634898BF75
:10CB30009BB200215AF064FA99E60823BB60B5F86D
:10CB4000482FB5F84E3FD5F84A1FA5F8402F02F000
:10CB50001F0C0120BCF1010F85F8540FA5F8463FCA
:10CB6000B5F84C0FA5F8563FC5F8421F5FFA82FE94
:10CB700000F0C481BCF1020FC2F3072200F07B81F8
:10CB8000BCF1000F00F0898095F85A3F002B3FF46C
:10CB9000FFAED5F8742CD2F80018002063F30A1108
:10CBA000C2F8001885F85A0FF2E60123BB60B9F10C
:10CBB000000F29D195F8543F032B7FF4E5AED5F84B
:10CBC000041ED5F8E83D994240F2CF81C91A8B4244
:10CBD000C5F8041E88BF8BB2D5F8F42D374898BF2E
:10CBE0009BB200215AF0FAFACEE6D5F8783C5B69A0
:10CBF000002B3FF43CAE95F8582F032A7FF437AE54
:10CC0000F1B22E48984732E6D5F8783C9B69002B64
:10CC10003FF4BAAE95F8582F032A7FF4B5AE5FFA09
:10CC200089F126489847AFE6002F3FF4BBAD2C2191
:10CC300001FB025107F1030CD1F8F49D4FEAAC0C53
:10CC400003F5805E484600210131DEF8004040F8DF
:10CC5000044B6145F8D12C2101FB025209EB07007E
:10CC6000D2F8FC1DC2F8F40D3944C2F8FC1D99E558
:10CC700095F8582F85F8592F042285F8582FD3F8A6
:10CC80000828D2071CD4D5F8783C1B6A002B3FF447
:10CC9000B1AD022109489847ACE51EF0600F40F0A5
:10CCA000778189B2092A12D8DFE802F05D3B11BC16
:10CCB00011D29211791500BF420D030044260020C5
:10CCC000D3F8002E42F00102C3F8002EDBE7B4488F
:10CCD0005AF058F958E7CAB2B249034381F8002D17
:10CCE0000193F4D195F8583F022B00F0F481032B07
:10CCF000EDD1002A40F0D881D5F8783C85F85D2F39
:10CD0000022185F8581F5B68A54801929847019A4F
:10CD1000A348042385F8543F114613465AF070F98E
:10CD200032E795F8583F023B012BD0D801297FF418
:10CD30002BAFD5F8603FD5F8782C9B4923F0020340
:10CD4000C5F8603F002385F85B3F9268A1F533701A
:10CD50009047042285F8542F002391481A4619461B
:10CD60005AF04EF910E795F8583F023B012BAED828
:10CD700095F85B3F2BB1D5F8603F43F00203C5F84F
:10CD8000603F8A4A02230021A2F53B70C5F8A83C07
:10CD9000C5F8A43C85F8543F5AF032F9F4E6012B6B
:10CDA00095D195F8582F022A00F0C981032A8ED117
:10CDB0007F4AC5F8A83C02216FF43A7C85F8541FDD
:10CDC00002EB0C000021C5F8A43C5AF019F9DBE68F
:10CDD0000B0A022B00F0E281032B00F0D681012B1D
:10CDE0007FF475AFD5F87C3C1B68984700283FF46A
:10CDF000CBAE0388002B3FF4C7AEB5F8461F002921
:10CE00003FF4C2AE8B4228BF0B460221426885F830
:10CE1000541F6348C5F8A83C0021C5F8A43C5AF04B
:10CE2000EFF8B1E601297FF4AFAE85F85B1FD5F8C6
:10CE3000783C5D499B68A1F5337098470023042234
:10CE400085F8542F56481A4619465AF0D9F89BE6E9
:10CE500003437FF43CAF95F8582F032A01F07F017C
:10CE60003FF435AF00290CBF0122022285F85A1F7A
:10CE700085F8582FE3E70EF0600E0B0CBEF1200F83
:10CE80000193C1F307430AD1D5F8782C464992683B
:10CE90000293A1F53370904795F8412F029B012A28
:10CEA00000F0CC80032A00F0AC80002A7FF40FAFA2
:10CEB00095F8582F022A00F09C80032A7FF407AFD0
:10CEC000019A100600F1E8803A4A2C2101FB032266
:10CED00002F5B872537B3248A3F10103B3FA83F32E
:10CEE0005B0942F8103F00210223C5F8A83CC5F8B1
:10CEF000A43C85F8543F5AF083F845E695F8583F2E
:10CF0000032B7FF4E4AE264BD5F8782C019392687E
:10CF100003F5337118469047B5F8462F019B002A58
:10CF20007FF432AE18460422002385F8542F1946A8
:10CF30001A465AF065F827E607F1030C5FEAAC0CD5
:10CF40000AD01D4803F5805E00210131DEF8004063
:10CF500040F8044B8C45F8D12C2101FB0252D2F849
:10CF6000FC1D3944C2F8FC1D1CE4D5F8783C1A6954
:10CF70000B4B1AB1184601939047019B18460422A7
:10CF8000002385F8542F19461A465AF039F8FBE465
:10CF9000D5F8783C04499B68A1F533709847F3E5D0
:10CFA00044260020C03B002010290020302900200A
:10CFB0002D2900204026002018290020D5F8A02C7B
:10CFC00093424CD0D5F8783CDB68002B5FD095F8C5
:10CFD000582FDFF810A2032A01D1504698470023AA
:10CFE000052285F8542F50461A4619465AF0F6F88D
:10CFF0003DE459063FF4C8AD7A48194659F092FF0E
:10D00000C2E595F8582F022AF3D0032A7FF45FAEC9
:10D01000B5F8422F002A3DD15A063BD01946714B34
:10D020000193184659F07EFF019BD5F8782C0193A7
:10D03000184692686C499047019B73E795F8582F02
:10D04000022AD6D0032A7FF442AEB5F8422F002A36
:10D050007FF49AAD13F07F0047D1624B62E7D5F8B9
:10D06000A82C9342AED8B5F8563F9A42AAD233467E
:10D07000324631465B48C5F8A06C59F0C1FF5948AB
:10D080003346324631465AF0A9F8FFF7F0BBDFF8D5
:10D0900054A1A4E7534BC8E7544A03F07F032C2163
:10D0A00001FB0322103215E795F85D3F9342D4D17E
:10D0B000D5F8783C4B485B6898474D4991F8003D5E
:10D0C00085F85D3FD5F8783C1B68464898470423AF
:10D0D00085F8543F40E6002ABFD085F85D2F032233
:10D0E000D5F8783C85F8582FEEE70199D5F8742CDF
:10D0F00011F0800F3D4943D12C2000FB031101F5B5
:10D10000B871887850BB02F510630A7803EB4213BC
:10D11000CA78D3F800C0023A60F3555C012AC3F81C
:10D1200000C028D92F4BD5F8782C019300204873E4
:10D13000926803F5337118469047019BF2E685F833
:10D14000542F2C4AC5F8A83C0021A2F53A70C5F826
:10D15000A43C85F85C1F59F053FF15E502F53063D8
:10D160000A7803EB42131A6822F400121A60CA7894
:10D17000023A012AD6D81A6842F080521A60D1E7E2
:10D180002C2303FB00111031BBE7C9B205293FF680
:10D19000FFAEDFE801F0211C17120D08D5F87C3C2A
:10D1A0009B68984722E6D5F87C3C1B6A98471DE6A9
:10D1B000D5F87C3C5B6A984718E6D5F87C3CDB697F
:10D1C000984713E6D5F87C3C9B6998470EE6D5F85E
:10D1D0007C3C5B69984709E6D5F87C3C1B6998471D
:10D1E00004E600BF4426002010290020402600202D
:10D1F000C03B00202C290020BFF34F8F0549064B70
:10D20000CA6802F4E0621343CB60BFF34F8F00BFE4
:10D21000FDE700BF00ED00E00400FA0508B50021BD
:10D220000320FEF751FE72B6FFF7E6FF154C08B576
:10D23000D4F8043D94F80A0DABB91420FDF7F2F8C8
:10D2400000BFD4F8043D5BB11A689B88116994F85B
:10D250000A2D0B4012B91BB1FFF7E0FF002BFBD0EA
:10D26000FBF7E6FAECE719689A880B69134020B1DE
:10D27000002BE2D10B691340FAE7002BDDD00B69DC
:10D280001340FAE7C03B002008B572B6FFF7B4FFC1
:10D29000F0B5AA4BB3F5C07F85B000F0A78100F2CE
:10D2A0003381B3F5807F00F0A781B3F5A07F00F054
:10D2B000A181802B14BF05240624A14B1B8A03F0F7
:10D2C0000703A34240F09A819E4858F003FE9E490E
:10D2D0009E4B0A689E4842F480720A60FF24CA216D
:10D2E00053225C6259625A62D0F87438DB0000F154
:10D2F0001481984A954B984FCA2553240020FF214A
:10D300005D625C62029002925D625C62029E043227
:10D31000BA42306059625962F2D190490020FEF75A
:10D32000D3FD8F4B002103910393039B1B68009354
:10D33000009B012B00F02E81824858F0CBFD824AE1
:10D34000884B1169012060F302011161196E02F529
:10D35000E43260F301011966136803431360136834
:10D360009F07FCD59368804923F0030393608B6883
:10D3700013F00C0FC3F38102F9D10B687B4C23F03F
:10D38000867323F480334FF41F000B608A604C6077
:10D39000C1F8A020C8600B686D4A43F480330B606D
:10D3A000D2F800389E0307D44FF44053D2F8001847
:10D3B0008D0301D4013BF9D1D2F800389C03EFD59D
:10D3C0006949634A0B6843F001030B60D2F80038E7
:10D3D0009807FBD5644B5A6842F480025A605A6839
:10D3E000482161F38E125A605968594A012060F34E
:10D3F00003015960596860F312415960196841F09E
:10D4000080711960D2F800389901FBD5564A9368AB
:10D4100023F0F00393609368042161F34F3393602A
:10D42000936861F38C239360D2F8A43043F0300307
:10D43000C2F8A4309368022060F3010393609368FC
:10D44000C3F38103022BFAD1D2F8A43023F03003C6
:10D45000C2F8A430D2F8A4300B2161F30F33C2F824
:10D46000A430D2F8A03023F40053C2F8A03093685F
:10D4700013F00C0FC3F3810100F09680022900F035
:10D48000A1803B4A38493B488B683B4C3B4DC3F33A
:10D4900003131844E36890F8880FC2404FF6FF006A
:10D4A000034043F0052343F47A03E360344B486FB1
:10D4B000C3F80C0D2648334BA360D0F8343823F062
:10D4C0000043C0F834384B6F2F4843F080734B67EC
:10D4D000C5F8EC2058F0FEFCFBF7F0FA2B4AD5F823
:10D4E000EC30A2FB03239B09013BB3F1807F09D2FF
:10D4F0004FF0E022F02053610021072384F823003D
:10D500009161136105B0F0BDB3F5E07F70D0B3F564
:10D51000007F14BF05240024CFE61D4B002201929A
:10D520000193019A03F11973126803F59E3303F214
:10D53000E1139A427FF4DDAEF3E600BFC0000000C5
:10D5400000C0FF1F1C004000007000400028004089
:10D5500000300240542800406C280040316665428B
:10D560005C280040003C02400038024002300300CA
:10D5700000127A001444070800ED00E000000020CB
:10D58000C03B0020000000081F003000D34D621097
:10D59000502800400320FEF797FC3F4B1A6882F3A7
:10D5A00008885B689847FEE7D2F8A0305B047FF5F7
:10D5B00068AFD2F8A010394B394A11F4805F08BF28
:10D5C0001A465FE75368536851685068354D334CCD
:10D5D000C0F30240C3F388122B5C01F00F0104FB7F
:10D5E00002F213FB01F3B2FBF3F24BE7022464E611
:10D5F000012462E6032460E604245EE62A4D2B4AF9
:10D600002B4B6A606B606A646B64E969AA6011F015
:10D61000020F14BF0026A526AB602B699905FCD527
:10D620002B6943F020032B612B6943F040032B61EE
:10D630004FF0004058F036FF2B69032823F02003F9
:10D640002B6117D0184D194A194BAA60AB602B6992
:10D650009A05FCD52B69174A43F010032B614FF450
:10D660008010148258F01EFF2B6923F010032B61E9
:10D67000FFF70AFEA52EE5D12B690E4A43F01003F1
:10D680002B614FF48010168058F00CFF2B6923F0AB
:10D6900010032B61D6E700BF0000FF1F00127A00C5
:10D6A000006CDC0288E70708003C02402301674564
:10D6B000AB89EFCD00C0FF1F10B584B004466846AB
:10D6C00058F098FB144B9C421DD003F580639C429C
:10D6D00019D003F570539C4215D003F580639C422A
:10D6E00011D003F580639C420DD003F580639C420A
:10D6F00009D00A4B03989B68C3F38223032B00D9FC
:10D70000400004B010BD054B02989B68C3F3423340
:10D71000032BF6D94000F4E7000001400038024036
:10D720002DE9F04F8FB000230893B04BDFF8DC9267
:10D73000AF4EDFF8C0A2A3F69875AC4C2346E03399
:10D740000793D4F800B099F8222D4FEA9B23A3F554
:10D750008013532B00F2CB802B441B7C0E2B00F24A
:10D76000C680012A16F9038000F0F880022A02D14F
:10D77000B8F1080F2FD10127B9B2404610F068FD6B
:10D7800010F0F4FD90F9003013B1542B40F0F78104
:10D790000137052FF0D1089B0021002B00F0B1804C
:10D7A000944A0AE02B441B7C0E2B0DD8F3564345BC
:10D7B0000DD0AC32924500F0A180906803689B0ABE
:10D7C000A3F58013532BEDD900234345F1D14379C1
:10D7D00060799842EDD1079B1C34A342B1D1089BDC
:10D7E0000133042B08930AF1AC0AA6D1DFF820A27A
:10D7F0004FF0010B804B93F80C260BF1FF339A424C
:10D8000072DD99F8363DDAF80C5008939AF810302A
:10D810000A93002D00F0ED83AB882968B3FA83F3F7
:10D8200001F13F41C3F11F0301F57E010793890A0E
:10D83000714BD3F81047002C40F39D8003F2147312
:10D84000002605E00136A64203F1AC0300F090800B
:10D850001A688A42F6D1079B664ACAF80430AC239C
:10D8600003FB0626CAF8186025B15FFA8BF3EB714B
:10D870000323AB71079F736CF16B780001220324C3
:10D88000844002FA00F0034373645B4B93F8443521
:10D890002143F16302FA07F4B16C002B00F05381CD
:10D8A0002143B1646DB1554BAA8893F8D0132B680E
:10D8B000490141F0050101F0E5019A612846FCF7B4
:10D8C00035FE706FA1B20122FAF7CAFC30460BF1A7
