:020000040800F2
:10000000F0FF02209DF80708F5F80708B52C030853
:10001000F5F80708F5F80708F5F8070800000000EC
:10002000000000000000000000000000F5F80708D4
:10003000F5F8070800000000F5F807087D430108FF
:10004000F5F80708F5F80708F5F80708F5F80708C0
:10005000F5F80708F5F80708491501084D150108D6
:10006000511501085515010859150108F5F807083B
:10007000F5F80708F5F80708F5F80708F5F8070890
:10008000F5F80708F5F80708F5F80708F5F8070880
:10009000F5F80708F5F80708F5F807085D150108F1
:1000A0001DAA000845AA00086DAA000809AA0008B0
:1000B00095AA0008A9AA0008BDAA0008C1A80008BE
:1000C000B5A80008D9A80008CDA80008F5F80708C9
:1000D000F5F80708FDA8000809A9000815A90008F7
:1000E00061150108F5F80708F5F80708F9AA0008EE
:1000F00021AB000849AB0008E5AA0008F5F807089D
:10010000F5F80708F5F80708D1AA0008F5F8070878
:10011000F5F8070821A90008F5F80708F5F8070819
:1001200085AB000899AB0008ADAB0008C1AB000877
:10013000D5AB0008F5F80708F5F80708F5F8070843
:10014000F5F80708F5F80708F5F80708C5C6000828
:10015000E9AB0008FDAB000800000000F5F8070857
:10016000F1A80008E5A80008000000000000000059
:10017000F5F80708F5F80708F5F80708000000008B
:1001800000000000F5F807082DA90008F5F8070899
:10019000F5F8070800000000000000000000000063
:1001A000000000000000000000000000F5F8070853
:1001B000F5F8070800000000F5F807080000000047
:1001C000000000000000000000000000000000002F
:1001D0000000000000000000F5F80708F5F8070827
:1001E000F5F80708F5F80708F5F8070871AB0008F7
:1001F00011AC000825AC000839AC00084DAC000873
:0C02000061AC000875AC000889AC000877
:10800000D0E907239A423CBFC1685218D01A704782
:10801000D0E9092300699A4238BF1218D31A0138EF
:10802000C01A7047D0E90902101AB0FA80F040096E
:10803000704700BF0246036A4069D168C05C0133E3
:108040008B4228BF00231362704700BF436A8269D6
:10805000D154436A0169426B01338B4228BF00232C
:108060004362D36843F08003D3607047436B186862
:1080700010F0100002D01A685B680120704700BF42
:1080800084464069002842D1DCF8003070B5C3F363
:108090000A0403F178427CB9B2F5002FC0F0D68013
:1080A00003F1774202F57802B2F5002FC0F0838029
:1080B0000433CCF8003070BDB2F5002F0C6846D305
:1080C00003F1774202F57802B2F5002FF0D2914920
:1080D0000A6D42F001020A651C60CB6C13F00103CB
:1080E00000F082804FF48012CB6C13F0010302F198
:1080F000FF3240F09080CC6C640740F19E80002AF3
:1081000000F08C800A6D63F300020A653AE0704764
:108110004FF00042EC6814F00104964602F1FF3281
:1081200040F0AB80EE68760700F1AB80EC68C4F3FA
:108130000014002A00F0A880C4F10304E4B2754DD5
:108140002A69032C22F002022A614AD10C68714983
:108150000A6942F001020A611C60CB6813F0010356
:1081600013D04FF48012CB6813F0010302F1FF32F9
:1081700049D1CC68660757D5002A46D00A6963F30F
:1081800000020A616FF0010070BDCA685207F5D4A1
:10819000CB68C3F30013C3F10303DBB25D490A6983
:1081A00022F001020A61032BECD1DCF80030043329
:1081B000CCF800307FE7574D2A6D42F002022A6565
:1081C0006B652A6D42F040022A65EA6C12F00102EA
:1081D00060D1EC6C640740F18C802B6D62F341033D
:1081E0002B654FF0FF3070BDCA6C55078AD4CB6C3D
:1081F000C3F30013C3F10303DBB246490A6D22F057
:1082000001020A65CFE7002AADD1424A136923F083
:1082100001031361B6E7002A7FF466AF3D4A136D90
:1082200023F001031365ADE7CB68C3F30013002A05
:10823000EBD0C3F10303DBB2B0E7CB6CC3F30013A5
:10824000002AEBD0C3F10303DBB2D6E7314D2A6934
:1082500042F002022A616B612A6942F040022A61FF
:10826000EA6812F001027FF453AFEC68640739D575
:108270002B6962F341032B61B3E7002A7FF44AAF15
:1082800002E0BEF1010F40D1224A136923F002033C
:108290001361A6E74FF00042EC6C14F0010496461F
:1082A00002F1FF3212D1EE6C760712D4EC6CC4F3FB
:1082B00000148AB1C4F10304E4B2164D2A6D032CF4
:1082C00022F002022A658CD10C6800E7002AE3D173
:1082D00002E0BEF1010F13D10E4A136D23F0020329
:1082E00013657EE7EC68C4F30014C4F10304E4B240
:1082F00025E7EC6CC4F30014C4F10304E4B2DCE73A
:108300002B6D64F341032B656BE72B6964F3410329
:108310002B6166E7003C024043899BB2FF2B10B4FF
:10832000046810D9FF23038103891048DBB242EAB5
:10833000034263680A4303401A4342F0807262605A
:108340005DF8044B704743899BB20381038907485A
:10835000DBB242EA034263680A4303401A4342F035
:10836000007262605DF8044B704700BF009800FC2B
:10837000C368072B0AD8DFE803F084847272525274
:108380000A0A428992B2002A40F06E81704703685F
:108390009A69D20672D49A6912F0080240F0CA8033
:1083A0009969890640F14C812021D961196821F031
:1083B000FE011960596862F309015960596862F356
:1083C0000C315960596862F317415960596862F37A
:1083D00018615960596862F38A215960996989075F
:1083E00048BF9A629A69D10703D49A6942F00102A0
:1083F0009A619A6952070FD542685B6A511C4160C5
:10840000137003899BB23BB14389013B9BB243810B
:108410000389013B9BB2038101230361704710B5BF
:108420000468A26912F0100282B044D01023E36104
:10843000236843F020032360A3699A0744BF002305
:10844000A362A369DB0703D4A36943F00103A3611B
:1084500043899BB20BB11123037502B010BD0368B1
:108460009A69D10655D5428992B23AB99969880775
:1084700048BF9A629A69D10740F1CF801022DA6131
:10848000704703689A69D10632D51022DA619A6979
:10849000920701D500229A629A69D20703D49A6999
:1084A00042F001029A6143899BB2002B3FF46EAF08
:1084B000112303757047A36913F080037BD02368F1
:1084C00023F04003236043899BB2002BC5D0616831
:1084D0000190C1F30901FFF71FFF0198038D102BD5
:1084E00023680CBF43F4804343F400432360B4E7A4
:1084F0009A69910721D54268511C416012789A62AD
:108500004389013B9BB243810389013B9BB20381B9
:1085100070479A6912070DD49A69920700F1918009
:108520009A6912F004027FF42CAF996989063FF52D
:108530003BAF70470822DA6170479A69110671D41F
:108540009A69520700F190809A6912F0400240F057
:1085500091809969890640F19B802021D9615968F1
:1085600062F309015960596862F30C315960596826
:1085700062F317415960596862F31861596059688C
:1085800062F38A2159609A69D20644BF1022DA61E7
:108590009A69910744BF00229A629A69D20703D46C
:1085A0009A6942F001029A611A68012122F0F602EA
:1085B0001A6001617047A26991067FF54EAF2022D3
:1085C000E261626863F309026260626863F30C321D
:1085D0006260626863F317426260626863F3186204
:1085E0006260626863F38A226260A369DA0644BF4C
:1085F0001023E361A3699B0744BF0023A362A3691F
:10860000D90703D4A36943F00103A36123680122BE
:1086100023F0F603236002611FE79A6942F001022A
:108620009A612BE7028992B2002A7FF4AFAE4189AA
:1086300089B200293FF4AAAE5968C1F309016BE67B
:108640007047428992B2002A3FF4A0AE4268511CA2
:10865000416012789A620389013B9BB2038143898E
:10866000013B9BB24381704742685B6A511C416089
:10867000137045E7428992B2002A7FF487AE5A68A8
:1086800091013FF583AE5A6842F480425A607047C8
:10869000704700BF03689A69D10508D54FF480720E
:1086A00013210175DA611A6822F080021A609A6952
:1086B000920508D54FF4007213210175DA611A682A
:1086C00022F080021A609A69510508D54FF4806241
:1086D00013210175DA611A6822F080021A609A6922
:1086E000120508D54FF4006213210175DA611A688A
:1086F00022F080021A609A69D10408D54FF48052A2
:1087000013210175DA611A6822F080021A609A69F1
:10871000920408D54FF4005213210175DA611A68EA
:1087200022F080021A60704730B444680169226800
:1087300002238B401A4218D08269117C032913D07E
:10874000D1680B4D4FF0000C82F810C089680868A2
:108750006CF30000086052681168527935F8120015
:10876000CA6822EA0002CA60636030BC704700BF7A
:10877000CC28080870B40D788C7800F5006CADB981
:108780008B68083B182B48D92A46002C4AD1DCF8C4
:108790001C3043F00103CCF81C30D0F8004962F3E0
:1087A0000A0400F51063C0F800492DE00123AB4036
:1087B0006A01E4B1DCF81C408D6800F5306044EAE1
:1087C0000343CCF81C30845865F30A0484508318A2
:1087D0001A68C97861F393421A601A6842F08052AD
:1087E0001A601A6842F400421A6070BC7047DCF8E4
:1087F0001C408E6800F510602343CCF81C30845870
:1088000066F30A04845083181A68C97861F39342A6
:108810001A601A6865F39952DEE70A4A13441A7A15
:10882000002CB4D0DCF81C3043F48033CCF81C307E
:10883000D0F8004B62F30A0400F53063C0F8004B37
:10884000C6E700BFCC280808044B93F8E802A0F163
:108850000300B0FA80F04009704700BF801F01207C
:10886000704700BF704700BF704700BF01207047CE
:10887000064BD3E9C102801A07D19B685B6A93F863
:108880005320012A08BFB3F850007047801F012011
:10889000012380F849307047044B9B685B6A93F86A
:1088A0005200003818BF012040027047801F01208D
:1088B0000B0610B4046824D42C2303FB010303F536
:1088C000B6731A789978520189B904F510618858FD
:1088D000C00F03D18C5860F39E748C50885840F4BC
:1088E0000010885001225A735DF8044B704704F55C
:1088F00030618858C00FF1D18C5860F39E748C5051
:10890000ECE701F07F012C2303FB01030C33D8E7D4
:1089100090F86C2190F86E11036830B4520101BBDD
:1089200003F510618C58E40F20D08C5844F40014E7
:108930008C50027B817B012480F879415201D1B9AE
:1089400003F510639958C90F03D19C5861F39E74C5
:108950009C50995841F400119950012330BC437642
:10896000704703F530618C58E40FDED18D5864F305
:108970009E758D50D9E703F530639958C90FE8D13A
:108980009C5861F39E749C50E3E700BF2DE9F041D1
:1089900001F07F012C2606FB0106056896F80CE025
:1089A000002405F5106CB462C6E908230CEB4E1CDC
:1089B00005F50064F3B9DCF810704FF0010868F3B6
:1089C000DC47CCF81070DCF8107063F31207CCF8B9
:1089D0001070F37B43454CD0DCF8003043F08063EB
:1089E000CCF80030DCF8003043F00043CCF8003025
:1089F000BDE8F08111BB4669B3428CBF4662466A4E
:108A0000DCF8103066F31203CCF81030DCF81030CC
:108A1000012767F3DC43CCF81030C37BC662BB424E
:108A200027D02C2303FB01035B6A002BD4D0626B9D
:108A3000012303FA0EF313436363CDE7DCF81070F0
:108A4000066C63F31207CCF81070013B3344B3FBA0
:108A5000F6F3DCF8106063F3DC46CCF8106090F8B5
:108A60003B30012BDDD1DCF8106063F35E76CCF88F
:108A70001060A368DB0528D5DCF8003043F0805394
:108A8000CCF80030DCF8003043F08063CCF80030E4
:108A9000DCF8003043F00043CCF800302C2303FB1B
:108AA0000100B0F824C00CF1030C5FEAAC0C9FD0BD
:108AB00005F5805303EB0E330021013152F8040B0E
:108AC00018608C45F9D1BDE8F081DCF8003043F046
:108AD0000053D5E74FF02C0C0CFB010C70B404686C
:108AE000CCE9602300239CF86C21CCF8883104F594
:108AF000306303EB421361B3D0F8B02172BB2C2278
:108B000002FB0102D2F874511A6965F312021A616C
:108B10001A69012565F3DC421A612C2202FB01006F
:108B200090F86F21012A0AD1D4F8082812F4807F26
:108B30001A680CBF42F0005242F080521A601A6864
:108B400042F080621A601A6842F0004270BC1A60FB
:108B50007047D0F87421C0F88421D0E7D0F8A05134
:108B60001E692A44013AB2FBF5F202FB05F565F3F2
:108B700012061E611D6962F3DC451D61CDE700BF71
:108B800038B51E4CD4F8042352B1D4F808339A42B5
:108B900006D0591C2344C4F8081393F80C0338BDBD
:108BA000A268526A92F853100023C4F8083301B344
:108BB000B2F8505082F85330ADB11149D01C10F8C2
:108BC00001CF01F801CB0133B2F850C09BB29C45F4
:108BD000F5D840230B4804320121FFF77BFF002327
:108BE000C4F80453D6E70748402304320121FFF7B5
:108BF00071FF0020C4F8040338BD00BF801F0120AE
:108C00008C220120841F01202DE9F84343685D6A0E
:108C10004FF4E13300266B654FF00109082385F816
:108C2000529085F85A30A5F8586085F85360D0F80E
:108C300000802E60C3664FF440730446A0F866308F
:108C400000F164014046FFF795FD40274FF40073A3
:108C5000638704F1380140462764FFF78BFD40F23B
:108C600001234046A4F89A3104F5CC71C4F8A071F0
:108C7000FFF780FD20463B462A1D4946FFF72AFFA5
:108C80003046BDE8F88300BF10B591F800E04368B6
:108C90001EF060045A6A84461BD0202C04D0604623
:108CA000FFF736FE002010BDCB88002BFAD01EF057
:108CB000800F4C7822D1032182F84C40A2F84E302C
:108CC00080F8E012C0E9643344320021FFF702FF6C
:108CD000E8E74B780A2B07D00B2B02D0062BE1D10B
:108CE000DDE74B881360DDE7012321460224C0E95C
:108CF0000C3380F8E042FFF749FED3E7202C02F165
:108D0000440017D0212C0AD1536D5364B2F8583067
:108D1000A2F8483092F85A3082F84A30CB880222C2
:108D20008CF8E022CCE90C33024600216046FFF7C4
:108D30002DFEB7E7516C5165B2F84810A2F85810F3
:108D400092F84A1082F85A10E9E700BF00207047F5
:108D500043685B6A93F84C20202A01D000207047BA
:108D6000586CB3F8481093F84A205865A3F8581087
:108D700083F85A200020704710B4D0E900422369DC
:108D8000506A61F38A1323612269084B42F0200282
:108D9000226101E0013B02D022699206FAD401234C
:108DA00080F852305DF8044B00207047420D0300FC
:108DB000436801F07F012C2202FB01005B6AD0F8BE
:108DC0008811A3F85010012283F853200020704727
:108DD00000207047002070470048704700000120C5
:108DE00000207047004870470800012000207047AD
:108DF000004870471000012030B50021144D154C7B
:108E0000412002238E4604EB030C5A1C8CF80C0BF9
:108E100014FA82F215F8010F82F80CEB02338C463B
:108E20009BB201310028EED10CF1020C4FEA4C0C40
:108E30001FFA8CFC084884F80CCB032384F80D3B04
:108E4000C4F8100CA4F80CCC00F5807030BD00BF45
:108E5000F4DA0808801F01208C2A012030B5002197
:108E6000144D154C412002238E4604EB030C5A1C72
:108E70008CF80C0B14FA82F215F8010F82F80CEB47
:108E800002338C469BB201310028EED10CF1020C6A
:108E90004FEA4C0C1FFA8CFC084884F80CCB0323D7
:108EA00084F80D3BC4F8100CA4F80CCC00F58070CD
:108EB00030BD00BFFCDA0808801F01208C2A012089
:108EC0001A49D1F8E837D1F8F0279B1801D1184892
:108ED0007047184AD1F8EC0710B5114602F110049A
:108EE0004FF0000E4FEA137CB3F1204F34BF0CF16A
:108EF000300C0CF1370C81F802C081F803E002312C
:108F00008C424FEA0313EDD102F108040021030F54
:108F1000B0F1204F34BF303337339374D174023201
:108F200094424FEA0010F2D1014810BD00F0FF1F3B
:108F3000180001202000012030B50021144D154CEF
:108F4000562002238E4604EB030C5A1C8CF80C0BA3
:108F500014FA82F215F8010F82F80CEB02338C46FA
:108F60009BB201310028EED10CF1020C4FEA4C0CFF
:108F70001FFA8CFC084884F80CCB032384F80D3BC3
:108F8000C4F8100CA4F80CCC00F5807030BD00BF04
:108F900014DB0808801F01208C2A012030B5002135
:108FA000144D154C562002238E4604EB030C5A1C1C
:108FB0008CF80C0B14FA82F215F8010F82F80CEB06
:108FC00002338C469BB201310028EED10CF1020C29
:108FD0004FEA4C0C1FFA8CFC084884F80CCB032396
:108FE00084F80D3BC4F8100CA4F80CCC00F580708C
:108FF00030BD00BF30DB0808801F01208C2A012013
:1090000010B41C6994420CD394460A4661448C42C5
:10901000996938BFA4EB0C0261445DF8044B79F008
:1090200015B85DF8044B7047004870473C000120BC
:10903000002070470048704744000120002070471E
:10904000004870474C00012030B50021144D154CEC
:10905000412002238E4604EB030C5A1C8CF8140C9E
:1090600014FA82F215F8010F82F814EC02338C46E0
:109070009BB201310028EED10CF1020C4FEA4C0CEE
:109080001FFA8CFC084884F814CC032384F8153CA0
:10909000C4F8180DA4F814CD00F5807030BD00BFE1
:1090A000F4DA0808801F0120942B012030B500213C
:1090B000144D154C412002238E4604EB030C5A1C20
:1090C0008CF8140C14FA82F215F8010F82F814ECE3
:1090D00002338C469BB201310028EED10CF1020C18
:1090E0004FEA4C0C1FFA8CFC084884F814CC03237C
:1090F00084F8153CC4F8180DA4F814CD00F5807060
:1091000030BD00BF48DB0808801F0120942B0120E0
:109110001A49D1F8E837D1F8F0279B1801D118483F
:109120007047184AD1F8EC0710B5114602F1100447
:109130004FF0000E4FEA137CB3F1204F34BF0CF117
:10914000300C0CF1370C81F802C081F803E00231D9
:109150008C424FEA0313EDD102F108040021030F02
:10916000B0F1204F34BF303337339374D1740232AF
:1091700094424FEA0010F2D1014810BD00F0FF1FE9
:10918000540001205C00012030B50021144D154C25
:109190004D2002238E4604EB030C5A1C8CF8140C51
:1091A00014FA82F215F8010F82F814EC02338C469F
:1091B0009BB201310028EED10CF1020C4FEA4C0CAD
:1091C0001FFA8CFC084884F814CC032384F8153C5F
:1091D000C4F8180DA4F814CD00F5807030BD00BFA0
:1091E0005CDB0808801F0120942B012030B5002192
:1091F000144D154C4D2002238E4604EB030C5A1CD3
:109200008CF8140C14FA82F215F8010F82F814ECA1
:1092100002338C469BB201310028EED10CF1020CD6
:109220004FEA4C0C1FFA8CFC084884F814CC03233A
:1092300084F8153CC4F8180DA4F814CD00F580701E
:1092400030BD00BF74DB0808801F0120942B012073
:1092500070B504684FF4007340260546438700F15B
:10926000380106642046FFF785FA40F20123A5F88D
:109270009A3105F5CC71C5F8A0612046FFF77AFA5E
:109280006A68526A07211180002302F580515360F9
:10929000C1E910338B642369012161F38A132361CF
:1092A0002169094B41F02001216101E0013B02D01D
:1092B00021698906FAD428461F2302F5815201212B
:1092C000FFF708FC002070BD420D030038B50568AB
:1092D00090F8662090F864100446284675F03AFA33
:1092E00094F83A2094F83810284675F033FA284656
:1092F00094F89A2194F8981175F02CFA002038BD52
:1093000070B4036890F8382090F83A404FF0010CA0
:109310000CFA02FC03F500615201F4B9CD6925EAAB
:109320000C05CD6103F51065AE5864F3CF36AE5031
:1093300090F8982190F89A41012090405201BCB9D0
:10934000CD6903F5106325EA0000C861995864F3FC
:10935000CF319950002070BC7047CC6903F530655F
:1093600024EA0C44CC61AC5824F40044AC50DFE750
:10937000CC6903F5306324EA0040C861995821F4B0
:1093800000419950002070BC704700BF002070471A
:109390000020704700207047002070474368234A30
:1093A00070B55D6A05F580530446D9641A640723D5
:1093B0002B7005F582520D238121FFF7E7FA26680D
:1093C00094F8982106F5306303EB421305F58155B7
:1093D0001F22C4E96B520021D4F8A021C4F8B411B3
:1093E000186902F11E01B1FBF2F101FB02F262F316
:1093F000120018611A6961F3DC421A6194F89B212A
:10940000012A0AD1D6F8082812F4807F1A680CBF06
:1094100042F0005242F080521A601A6842F08062B4
:109420001A601A6842F000421A6070BD55534253E8
:109430002DE9F0410B78426813F06003556A044649
:1094400036D0202B05D02046FFF762FA0020BDE879
:10945000F0814B78FE2B00F0B180FF2BF3D140F26E
:1094600007132B80006800236B600369012262F3FD
:109470008A1303610269714B42F02002026101E02C
:10948000013B02D001698906FAD405F581522046D4
:109490001F230121FFF71EFB0023042284F8E02292
:1094A00020461A461946FFF771FA0020BDE8F08100
:1094B0004B78013B0A2BC9D801A252F823F000BF18
:1094C000119500084D9400084D9400084D94000833
:1094D0004D940008479400084D9400084D940008EE
:1094E0004D940008F7940008ED94000805F58055A8
:1094F0004B88EB61AAE70123022105F5805280F831
:10950000E012C0E90C331C320021FFF73FFA9DE75F
:109510008A8856B2002ED1B25DDB2C2303FB0103F7
:1095200003F5B67393F800E09F7820684FF0010CC4
:109530000CFA0EFC4FEA4E1300F5006E002F5CD1C2
:10954000DEF81C8028EA0C0CCEF81CC000F5106C6C
:109550005CF803E067F3CF3E4CF803E012F08003C1
:1095600040D0036962F38A130361036943F0200367
:109570000361324B01E0013B02D002699206FAD44A
:10958000002E49DB2C2303FB0142012302F5B671B7
:1095900082F86E3140238B600223CB70FFF7EAF82C
:1095A0006B78022B42D0002EBFF650AF012B3FF458
:1095B0004DAF01212046FFF7F1FE47E701230222CC
:1095C000C0E90C3380F8E02200212A1DFFF7DEF904
:1095D0000020BDE8F08101F07F032C2000FB034355
:1095E0000C339FE7002ECDDA01F07F012C2202FB25
:1095F00001473946BB730C31CCE7DEF81C7027EA13
:109600000C4700F5306CCEF81C705CF8037027F442
:1096100000474CF80370A1E701F07F032C2202FB06
:109620000347002307F10C01BB73B3E781212046F8
:10963000FFF73EF900236B7008E700BF420D0300FF
:10964000436870B55D6A05F580536E789A6A044682
:109650001AB193F82C30334328D094F8383094F86A
:109660003A2021685B017AB901F51061CA58D20F1E
:109670000FD0CA5842F40012CA50022E4FF0010116
:1096800084F845100AD070BD01F53061CA58D20F78
:10969000EFD1C85862F39E70C850EAE705F58152D1
:1096A00020461F23BDE87040FFF714BA0121FFF7E1
:1096B000FFF8D2E7704700BF704700BFD0ED007AD7
:1096C000D0ED036A30EE677AE6EE877AB0EE670A8D
:1096D000C0ED007A704700BF90ED017AB5EE407A98
:1096E000F1EE10FAF0EE407A09D19FED0D7A60EEBE
:1096F000870AF7EE006A86EEA07A80ED017A31EEF5
:10970000077A90ED000A80ED021AC1EE076A77EE43
:10971000C07AC0ED036AA6EEA70A80ED000A704782
:10972000DB0FC940D0ED056AD0ED017A90ED066AF5
:10973000D0ED025A90ED035AC0ED066AB0EE407AC1
:1097400026EEA70AD0ED007A80ED057AA7EE870A0B
:10975000D0ED077AA5EE860A90ED086AD0ED045A9E
:10976000C0ED087AA5EE670AA5EEC60A80ED070AE5
:10977000704700BFF0EE406AD0ED007A90ED050A28
:1097800090ED037A90ED016AD0ED025AA7EEA60A99
:10979000D0ED047A27EE407A67EEC07AA6EE267AFC
:1097A000E5EEA67A90ED066AC0ED067A36EE076A17
:1097B00080ED056A704700BF03685A1C026019708B
:1097C000704700BF2DE9F04FD0E90031856889B0BE
:1097D0004A1C00EB81045918F1EE407A0591002DE6
:1097E00092FBF3F103FB1122426000F1800A84ED49
:1097F000200AC4ED407A00F5807240F38780691C2E
:10980000012603F1FF3B06914FF002090795B6468A
:109810000599A1EB090090FBF3F103FB1100411C3A
:1098200091FBF3F403FB14110AEB800802EB800CAC
:10983000F14501EB0E00D8ED006A90FBF3F49CEDCE
:10984000006AA3EB090603FB140055DDCDE901987E
:10985000CDE903C637460D46044641E0AB420AEB6C
:10986000840902EB840804F1010441DD0AEB850C54
:1098700002EB85060135DCED007AD8ED005A96ED55
:10988000007AF4EEE67AF1EE10FA0FDD99ED005A67
:10989000F4EEC57AF1EE10FA08DDB4EEE65AF1EE18
:1098A00010FA58BFF0EE456ACCED006AB4EEC67A05
:1098B000F1EE10FA0DDDB4EEE57AF1EE10FA08DD06
:1098C000F4EEC65AF1EE10FA58BFB0EE656A86EDB6
:1098D000006A01375F4530DAB0EE476AF0EE676A3A
:1098E000A342BBDCAB429046D1464FF00104BDDC45
:1098F0001646D4460125BEE706990EF1010E7145C4
:1099000009F102090BF1FF3B82D1079D0599491B23
:1099100091FBF3F003FB10130AEB830102EB8303CB
:1099200091ED000A93ED007A30EE470AF6EE007AE8
:1099300020EE270A09B0BDE8F08FDDE90198DDE9E6
:1099400003C698ED006ADCED006A41E08B420AEB49
:10995000800C02EB800700F1010041DD0AEB81057C
:1099600002EB81040131D5ED007AD7ED005A94ED78
:10997000007AF4EEC67AF1EE10FA0FD59CED005A9B
:10998000F4EEC57AF1EE10FA08D5B4EEC65AF1EE4F
:1099900010FAD8BFB0EE456A85ED006AB4EEE67AFB
:1099A000F1EE10FA0DD5B4EEE57AF1EE10FA08D525
:1099B000F4EEE65AF1EE10FAD8BFF0EE656AC4EDA7
:1099C000006A01365E4597DAF0EE476AB0EE676AE4
:1099D0008342BBDC8B421746D4464FF00100BDDC0E
:1099E000144655460121BEE703685A1C02601970EF
:1099F000704700BF024BD3F81C0D03681B68184763
:109A0000801F01202DE9F0410446D0E900301344C5
:109A100083421DD80D4601EB0208B2B104F10C07D8
:109A2000002601E0A84510D023695A1C2261234476
:109A300015F8011B1973042AF4D139462046FEF7A4
:109A40001FFBA845C4E90460EED16069BDE8F08160
:109A50004FF0FF30FAE700BF007970470079C0F39C
:109A60004010704700794009704700BF90F83C20D3
:109A7000034602F0FF0012B1002283F83C20704739
:109A8000436B1A6810B50446900606D5E26A0AB31D
:109A90005868216B80B29047636B1A6811060ED527
:109AA000D4E909128A4210D0A1692069895C013287
:109AB000C9B25960B2FBF0F100FB1122A2621A6830
:109AC000120744BF1A685B6810BDDA6822F0800292
:109AD000DA60F4E75B68E2696169DBB28B54E269E2
:109AE000E168636B0132B2FBF1F001FB1022E2612D
:109AF000D3E700BF2DE9F84F424E1F4606EB800327
:109B00005C6A002C79D004F14003A36104F5A073D2
:109B1000E3614FF48073C4E904334436236866601C
:109B20000546E16094F83E00A363904607F00AFE04
:109B3000064694F8440294F83CB004F10409A0BB32
:109B400094F845A2BAF1000F2BD1D4F8403223BBD0
:109B50003A070ED418F0020F2AD118F0010F37D1AE
:109B600094F94602D4F848126DF02EF84846BDE844
:109B7000F88F0135EDB21EB140F206733572F380F5
:109B8000FB0694F83F2033D417F0200F0CBF36218A
:109B90001621304607F092FDE2E750466DF04AF894
:109BA000D6E750466DF046F8CFE76DF043F8C7E7CB
:109BB0006B1CDBB21EB1337240F20653F38094F893
:109BC0003F203046062107F079FD18F0010FC7D07D
:109BD000584607F0B7FD0135EDB218B140F2066303
:109BE000C380057294F83D20062107F067FDB7E7B2
:109BF0000621304607F062FDB2E7A1464846BDE8BF
:109C0000F88F00BFCC2808082DE9F0470469C36825
:109C10001C4082B046D0814688464FF0004501F195
:109C20004C0701F13406B4FA84F325FA03F2D24367
:109C3000C9F8102014401B3BB8F1000F5FD0042B73
:109C40002ED8DFE803F052483D320300D8F80C303C
:109C5000D9F82CA033B19B6823B11FFA8AF108F11F
:109C600004009847D8F8243033B19B6823B11FFA19
:109C70008AF108F11C009847D8F83C3033B19B6852
:109C800023B11FFA8AF108F134009847D8F854300C
:109C900033B19B6823B11FFA8AF108F14C00984751
:109CA000002CC0D102B0BDE8F087D8F80C30D9F84C
:109CB00034105B6808F104009847002CB3D1F1E739
:109CC000D8F82430D9F838105B6808F11C009847A0
:109CD000002CA8D1E6E7D8F83C30D9F83C105B68F6
:109CE00030469847002C9ED1DCE7D8F85430D9F89C
:109CF00040105B6838469847002C94D1D2E7042B7B
:109D000007D8DFE803F01903140F0A00D9F83C3034
:109D10000193019B002C86D1C4E7D9F82C30019324
:109D2000019BF7E7D9F834300193019BF2E7D9F8AA
:109D300038300193019BEDE7D9F840300193019B46
:109D4000E8E700BF90F848305A1C0344D2B280F8CC
:109D5000482083F8341090F849300BB1132A01D908
:109D600074F0D4BC704700BF002280F8492074F022
:109D7000CDBC00BF2DE9F843DDF820800F46154625
:109D80000021202204461E4678F03EFBB8F1000F69
:109D90000CD0D8F80030E3811B0C2382D8F80430B3
:109DA000B8F80A20E3821B0C62822383384674F0E1
:109DB00009FFEB0619D4431EB8B107EB000C01E014
:109DC000013B12D31CF801EDBEF12E0FF8D1C01AE1
:109DD000421E032AA8BF0322082B03F10109A8BFD2
:109DE00008239046B9441A4606E008280246B946B8
:109DF000A8BF08224FF000084FF0203339462360F7
:109E00006360204678F022F904F10800154B2381A5
:109E100042464946837078F019F9611EE21D11F837
:109E200001CFACF16103192B9CBFACF1200C81F880
:109E300000C09142F3D104F10A0011F8013FA3F1EF
:109E40006102192A9CBF203B0B708142F5D1182377
:109E50002373330CA382E572099B6683E361BDE83B
:109E6000F88300BF202020008C461346014662463E
:109E7000184647F0CBB900BF2DE9F04F436889B0D1
:109E80005B6A029303F58053039393F82F30834664
:109E90005A2B5CD8DFE813F064015B005B006C01B7
:109EA0005B005B005B005B005B005B005B005B00DA
:109EB0005B005B005B005B005B005B0080015B00A4
:109EC0005B005B005B005B005B005B009901660070
:109ED0005B005B0066005B005B005B005B006B008F
:109EE0005B008F005B005B00B0005B0033015B0038
:109EF0005B005B005B003E015B005B005B005B00A6
:109F00005B005B005B005B005B005B005B005B0079
:109F10005B005B005B005B005B005B005B005B0069
:109F20005B005B005B005B005B005B005B005B0059
:109F30005B005B005B005B005B005B005B005B0049
:109F40005B005B005B005B005B005B005B0105226C
:109F50002023B449012081F87A2081F8883009B0A3
:109F6000BDE8F08F029A002393610020F7E7AE4A24
:109F7000029CD2F8300D039A92F82D2004EB820255
:109F8000411E4FF00065E56100239060080E60F30C
:109F90000703080C60F30F23080A60F3174361F30B
:109FA0001F634FF002104FF40075D5600C2123623F
:109FB0006062A161D9E79C4A029CD2F8300D039AF5
:109FC00092F82D104FF40075421E04EB8101C1E997
:109FD00002050023110E61F30703110C61F30F2337
:109FE000110A61F3174362F31F634FF40031082233
:109FF000E3612162A261B8E70299039A0B7892F8B3
:10A000002D20072B00F0AD82D1E90432B2F5805F3C
:10A0100028BF4FF48052029915464FF480528A614E
:10A020006A0A4FEA532301F11C0400F0D9801F464D
:10A030009E18029BDFF8F081CDF81CB0CDE90545F4
:10A0400003F50679A24622E0002F00F0F380D8F84D
:10A050003C3DBB4200F05481D8F8383DBB4200F093
:10A060008B81D8F8403DD8F8441DBB4200F2D08027
:10A070008F42C0F0C182791A50466CF04FFB013715
:10A08000B7420AF5007A09F5007900F0A580D8F802
:10A09000484DBC42D8D8D8F858BD3C1BE308DBF883
:10A0A00030200233934204F0070403D3DBF8382056
:10A0B00093420BD95946184604936CF0FFFA049B5F
:10A0C0008346002800F0B882C8F8580D9BF8042099
:10A0D000002A40F0BC81DBF82850002D00F0A5825A
:10A0E000DBF830209B1ADBF80C2004EBC30402EBF6
:10A0F00044225B464FF400715046A847BFE7029BDD
:10A10000039A1B7892F82D20072B00F0F981042286
:10A110003A231EE7039C94F8303094F82D2013F076
:10A12000020140F0EA81D4F83130029D1BBA2B6164
:10A13000901CE28E55F8200052BA92B2134483422A
:10A140002C466A617FF635AF0522212301E702988C
:10A1500008214FF4C0620023C0E90612036204E73D
:10A16000039B9B6A002B7FF4F2AE029A9361FCE69C
:10A17000029B2E4803F12E0200F1120313F8011D79
:10A1800002F8011D9842F9D1039B9B6A112BECD96F
:10A19000029A12239361E8E6039A92F8303092F81B
:10A1A0002D20DB0740F11882029A21480523936194
:10A1B000029903F11C02114403440A4613F8011DDD
:10A1C00002F8011D8342F9D1CFE60299002308224B
:10A1D000C1E906230B62C8E6DDE90545DDF81CB0E0
:10A1E0002246ABB281215846FEF7D0FB0299D1E955
:10A1F00004232A445B1BC1E9042303998A6C521B84
:10A200008A64002B7FF4B1AE029A04231370ACE68B
:10A210008F42BFF430AF4FF400720021504678F007
:10A22000F3F82CE700000120801F012078000120B6
:10A23000A02C01204FF400723946504678F0E4F823
:10A2400080238AF8BE310C238AF8C231D8F8381D31
:10A25000D64AD8F8303DCAF8C6119142CAF8CA3178
:10A2600000F3DB81D24A82FB0102D2480A4480FB20
:10A270000104C817C0EB6212C0EB2430CE4C8AF840
:10A28000C10184FB0254C2EB82158010491B0131CD
:10A2900020F03F0014440843D117C1EBE4110A44F5
:10A2A0008AF8C0018AF8BF21C04A013B934200F3FB
:10A2B000AC81BF4ABF4882FB031280FB03101A44E3
:10A2C000D917C1EB6212C1EB2031BB488AF8C51126
:10A2D00080FB0240C2EB821489101B1B013321F06A
:10A2E0003F0110441943D317C3EBE0131A448AF813
:10A2F000C4118AF8C3214AF65523AAF8FE31BEE6F6
:10A300004FF0FF338AF8EC318AF8ED318AF8EE31FC
:10A310008AF8EF3152238AF800308AF8013061233D
:10A320008AF802308AF8E73141238AF803308AF844
:10A33000E631722300248AF8E4318AF8E531D8F84E
:10A34000503DCAF8E8314FF4F07221460AF104009A
:10A3500078F05AF855238AF8FE316FF05503CAF8A1
:10A36000F041CAF8F441CAF8F8418AF8FC418AF889
:10A37000FD418AF8FF3182E64FF400720021504619
:10A3800078F042F88D4B03CB45F6EB03AAF800308A
:10A390009023CAF807108AF8023002220821F82315
:10A3A000CAF803008AF80D108AF810208AF81530D0
:10A3B000D8F8303D8AF80C208AF80E208AF82C2034
:10A3C000D8F8382D9B1ACAF82030D8F8402DD8F884
:10A3D000443D9B1ACAF8243000238AF80B308AF8CF
:10A3E0000F308AF81D308AF81E308AF81F308AF83C
:10A3F0002D308AF82E308AF82F308AF83130704BA1
:10A40000CAF818306F4BCAF842303E238AF81C3025
:10A4100001238AF830306C4A80238AF840308AF869
:10A4200046104AF65521AAF8FE1103CA674BCAF82E
:10A430004700CAF84B1003CB1388AAF84F30937823
:10A44000CAF85200CAF856108AF8513017E64FF48D
:10A4500000720021504677F0D7FF002C40F0F480C6
:10A46000DBF840300AF12005002B00F0FE80DBF81D
:10A47000303057491122CDE900445046FFF77AFCAD
:10A48000DBF840301A6C002A00F0FB801B6B51494E
:10A49000CDE9004428461122FFF76CFC0AF1400583
:10A4A0004FF4E073DBF84440002C3FF4E8ADCDF806
:10A4B00010A005EB030BBA460CE00027CDF800E036
:10A4C0000197FFF757FCA46C002C00F09A805D45C3
:10A4D00000F0978027792168236B284604F11C0E31
:10A4E00020351122002FE8D16279276942F021023C
:10A4F000CDE900E7FFF73EFCE5E70522242328E548
:10A50000039D95F92C30002BFFF621ADD5F83110C5
:10A51000029C09BA2161EB8E5BBA9BB204EB82020A
:10A5200063619068CE1886423FF60EAED268A86A84
:10A5300002FB03F302FB01F18342C4E904137FF43D
:10A5400006ADB3F5805F22464FF0020128BF4FF4FD
:10A55000805302F81C1B9BB201215846FEF7BAFA41
:10A5600003E5039C94F92C30002BBFF6F0ACD4F833
:10A570003130029D1BBA2B6105EB8201E28E52BA8B
:10A5800092B26A618868D61886423FF6DDADC96826
:10A5900001FB02F201FB03F3A16A8A42C5E904321E
:10A5A0007FF4D5AC0298012101702FE5FF03FB0079
:10A5B00083200882975545418180808088DB080888
:10A5C0003F00FF0029940E0D94DB0808A0DB08086B
:10A5D000E4F30808F0F20808039B2E48996A002A61
:10A5E00018BF0020029A24290B4628BF2423936118
:10A5F00000297FF4DDADB8E4F91A50466CF08EF80E
:10A600003DE55746DDF810A039E5FF238AF8C5314E
:10A610004FF6FF73AAF8C3316DE6FF228AF8C12115
:10A620004FF6FF72AAF8BF213EE629464FF40072AA
:10A63000504677F0E9FE22E5174AAAF1040343F8F1
:10A64000042F9945FBD11AE52301DBE9102452B10F
:10A65000023B002C3FF413AD013BA46CF9D15546ED
:10A660004FF4007320E7013BF3E7CDE900442346B4
:10A67000D8F8341D08225046FFF77CFB4FF4F073E6
:10A6800010E7CDE900440549234628461122FFF78B
:10A6900071FB03E744290808DEADBEEFF0F20808BD
:10A6A00070B50468264B226961F38A12226122691F
:10A6B00042F020020546226101E0013B02D02269FE
:10A6C0009206FAD46B685E6A3478012C1AD0033C87
:10A6D000012C15D806F580530022DA641949196453
:10A6E00007220D233270812106F582522846FEF79B
:10A6F0004DF91F23012106F581522846FEF7EAF99C
:10A70000002070BD2846FFF7B7FB0028F8D06B6823
:10A710000C495E6A06F5805307221964DC642846FA
:10A7200032700D2306F582528121FEF72FF928465B
:10A730001F2306F581522146FEF7CCF9002070BD9B
:10A74000420D03005553425370B543685D6A2B7840
:10A75000022B044619D0072B15D105F58053D3E9F8
:10A7600008169A6A9A64344A5E6491422BD0334B3D
:10A770000521202283F87A1083F8882002236B7049
:10A780002046FEF75DFF002070BDFFF775FB002837
:10A79000F9D063682A4A5D6A05F580530126DE64B4
:10A7A0001A6407232B7005F5825220460D23812160
:10A7B000FEF7ECF820461F2305F581523146FEF7DF
:10A7C00089F9002070BDD0F8B4211F2ACFD193F8A9
:10A7D0002D20012ACBD893F82E30013B0F2BC6D861
:10A7E000FFF74AFB60B92B785A1E012ACBD9042BFC
:10A7F000C9D0A86940B900212046FEF7CFFDC2E7C5
:10A800002046FEF71DFFBEE7636805F11C025D6A86
:10A8100005F580518B6A984238BF83B220468C6C14
:10A8200028BF9BB2E41A8C640024CC6403212970F5
:10A830008121FEF7ABF8A6E7555342430000012003
:10A8400055534253174A1849D2F8883030B443F46C
:10A850007003C2F888300B6843F001030B600B688B
:10A860009B07FCD58B68104A23F003038B60936829
:10A8700013F00C0FC3F38101F9D1136809480B4D94
:10A8800023F0867323F4803313604FF41F044FF0DA
:10A89000006391605560C2F8A010D46030BC836042
:10A8A000704700BF00ED00E00038024002300300B6
:10A8B000704700BF0148FDF7EDBE00BFE42C01204A
:10A8C0000148FDF755BD00BFE42C01200148FDF70C
:10A8D000E1BE00BF1C2D01200148FDF749BD00BFAE
:10A8E0001C2D01200148FDF7D5BE00BF542D0120CD
:10A8F0000148FDF73DBD00BF542D01200148FFF781
:10A90000BFB800BF940001200148FFF7B9B800BFED
:10A91000E40201200148FFF7B3B800BF340501206D
:10A920000148FFF7ADB800BF840701200148FFF7D9
:10A93000A7B800BFD4090120704700BFF0B5406838
:10A94000837913F0040287B00E46C3F340041ED18E
:10A9500025460123144690F805C0BCF1030F14D816
:10A96000DFE80CF03F2C021907680294CDE90332AE
:10A970000022CDE9002504210622384673F00EFF9F
:10A98000FE63FB6943F00803FB6107B0F0BD0025DF
:10A9900001222B46DFE707680294CDE9033200224B
:10A9A000CDE9002506221146384673F0F7FE3E64D5
:10A9B000FB6943F40063FB6107B0F0BD07680294D4
:10A9C000CDE903320022CDE90025022106223846D6
:10A9D00073F0E4FEBB69BE6343F40063BB6107B080
:10A9E000F0BD076802940021CDE90332CDE90015DE
:10A9F0000622384673F0D2FEBB697E6343F008033B
:10AA0000BB6107B0F0BD00BF024B0348D3F8081E7E
:10AA1000FFF7FAB8801F01200000014010B5064C76
:10AA20000648D4F8081EFFF7EFF8D4F8281E0448AB
:10AA3000BDE81040FFF7E8B8801F0120000001408A
:10AA40000040014010B5064C0648D4F8081EFFF738
:10AA5000DBF8D4F82C1E0448BDE81040FFF7D4B84A
:10AA6000801F0120000001400044014010B5064C49
:10AA70000648D4F8081EFFF7C7F8D4F8301E04487B
:10AA8000BDE81040FFF7C0B8801F01200000014062
:10AA900000480140034B4FF08040D3F80C1EFFF7F5
:10AAA000B3B800BF801F0120024B0348D3F8101E2B
:10AAB000FFF7AAB8801F012000040040024B0348A2
:10AAC000D3F8141EFFF7A0B8801F01200008004033
:10AAD000024B0348D3F8181EFFF796B8801F0120D9
:10AAE000000C0040024B0348D3F8241EFFF78CB83B
:10AAF000801F01200004014010B5064C0648D4F820
:10AB0000241EFFF781F8D4F8341E0448BDE8104035
:10AB1000FFF77AB8801F01200004014000180040B0
:10AB200010B5064C0648D4F8241EFFF76DF8D4F88B
:10AB3000381E0448BDE81040FFF766B8801F0120AA
:10AB400000040140001C004010B5064C0648D4F833
:10AB5000241EFFF759F8D4F83C1E0448BDE8104005
:10AB6000FFF752B8801F0120000401400020004080
:10AB7000024B0348D3F8541EFFF746B8801F01204C
:10AB8000004C01400348D0F82C3C13B100F5426062
:10AB900018477047000001200348D0F8503C13B11B
:10ABA00000F6444018477047000001200348D0F8E1
:10ABB000743C13B100F6684018477047000001204C
:10ABC0000348D0F8983C13B100F68C401847704702
:10ABD000000001200348D0F8BC3C13B100F54B60E5
:10ABE00018477047000001200348D0F8E03C13B13B
:10ABF00000F6D44018477047000001200348D0F801
:10AC0000043D13B100F6F8401847704700000120DA
:10AC10000348D0F8283D13B100F61C501847704780
:10AC2000000001200348D0F84C3D13B100F55460FA
:10AC300018477047000001200348D0F8703D13B159
:10AC400000F6645018477047000001200348D0F810
:10AC5000943D13B100F6885018477047000001205A
:10AC60000348D0F8B83D13B100F6AC501847704710
:10AC7000000001200348D0F8DC3D13B100F55D6011
:10AC800018477047000001200348D0F8003E13B178
:10AC900000F6F450184770470000012038B5304BDB
:10ACA0009A6812F00C0F0446C2F381014BD00229BE
:10ACB0001BD02C4B2A4A236091682B48C1F3031107
:10ACC000405C2A49C34063609068C0F3822001441D
:10ACD000274891F89C1023FA01F1E1609268C2F3D1
:10ACE0004232825CD340A36038BD5A685A685968C2
:10ACF000C2F3881C4FEA4C1EBEEB0C0E65EB05053B
:10AD00005A684FEA8E1001F00F03A901B0EB0E0054
:10AD100041EA9E6161EB0501C90041EA5071154DA0
:10AD2000C2F30242C00010EB0C0041F10001AA5C2A
:10AD3000490241EAD05103FB02F24002002374F0C1
:10AD40004DFD0346B6E7D3F8A0205204B1D5D3F8A1
:10AD5000A010044A084B11F4805F08BF1346A9E70E
:10AD60000038024000127A00A4360808CC280808EF
:10AD700068290808B4360808006CDC022DE9F043A5
:10AD8000446BE36823F40053E3608579D0F80890BE
:10AD900085B015F0040F074668460CBF0126022651
:10ADA000FFF77CFF3F4B9C4205F0020805D003F5FE
:10ADB00080639C4201D0039B00E0029B3A4A03EB74
:10ADC00083035B00B3FBF9F3A2FB0312D20802EB8F
:10ADD0008201A3EB4103042B88BF0132A36892B226
:10ADE00062F30F03A360E36823F08053E360E3683A
:10ADF000012E0CBF23F4805343F48053E360236996
:10AE0000690768F30D332361C5F3800337D5E36821
:10AE100023F40073E360E36843F48063E3606369F1
:10AE200023F480736361636923F4007363617B7946
:10AE3000DA0732D49B072BD41C4B03F1200053F8C4
:10AE4000042F11688C4211D09842F8D1636915F033
:10AE5000080514BF43F0080365F3C3036361E368A7
:10AE600043F40053E36005B0BDE8F08392F84C3240
:10AE7000002BEBD0236943F400432361E6E7E2684B
:10AE800063F34922E260E26863F38A22E260C6E784
:10AE9000E36843F00803E360CEE7E26842F00402AF
:10AEA000E260C7E700100140CDCCCCCCEC2808080C
:10AEB0002DE9F8431D46334B9DF820609DF8249002
:10AEC00098428846174645D02F4B98424AD02F4B80
:10AED00098424FD02E4B984234D02E4B98422DD1D1
:10AEE0004B46324629460620FEF704FE0446002360
:10AEF000C4E90733C4E90933C4E90B876671A56067
:10AF000084F806902046FFF739FFF107636B0DD4F4
:10AF1000B20706D4DA6842F40052DA602046BDE88F
:10AF2000F883DA6842F08002DA60F3E76FF020021B
:10AF30001A60DA6842F02002DA60E9E7002420466D
:10AF4000BDE8F8834B46324629460420FEF7D2FD81
:10AF50000446CCE74B46324629460020FEF7CAFDA0
:10AF60000446C4E74B46324629460120FEF7C2FD9F
:10AF70000446BCE74B46324629460220FEF7BAFD9E
:10AF80000446B4E70010014000440040004800407F
:10AF900000500040007800408160EFE64171EDE62E
:10AFA0008171EBE62DE9F04FB94B00EB400503EB67
:10AFB000850587B0D5F818AE43000193BAF1000FAC
:10AFC00000F01481804695F81C0E06F0BBFB044689
:10AFD00095F81D0E06F0B6FB08F101030746DBB23B
:10AFE00095F81E0E002C00F00A8140F60C12237218
:10AFF000E280002F00F0FD803B7240F60C23FB80C6
:10B000006BF018FE2368A2889A613B68BA889A613F
:10B010001921204605F0C4F81921384605F0C0F87A
:10B020000926332524B12368A28819690A4213D15D
:10B03000013D0ED009F0F0F98346894609F0ECF99C
:10B04000B0EB0B0061EB09010A2871F10001F5D3A7
:10B05000E8E714B12368A2889A6209F0DDF9054691
:10B060008B4609F0D9F9401B61EB0B01052871F102
:10B070000001F6D314B12368A2889A6109F0CCF9D3
:10B0800005468B4609F0C8F9401B61EB0B0105280A
:10B0900071F10001F6D3013EC3D114B12368A28837
:10B0A0009A6209F0B9F905460E4609F0B5F9401B58
:10B0B00061EB0601052871F10001F6D317B13B6879
:10B0C000BA889A6209F0A8F905460E4609F0A4F973
:10B0D000401B61EB0601052871F10001F6D314B1A4
:10B0E0002368A2889A6109F097F905460E4609F08F
:10B0F00093F9401B61EB0601052871F10001F6D3BD
:10B1000017B13B68BA889A61019B614A614D43441B
:10B1100002EB8303204693F8224E3621224606F0A6
:10B12000CDFA22463846362106F0C8FA5A4AC8EB0C
:10B13000C80305EBC3039245C3F864AD4FEAC806E4
:10B1400076D0564B9A4500F09080554B9A457DD06D
:10B1500002A8FFF7A3FD019B4D4A0598434402EB6B
:10B16000830393F81F3E022B5AD0032B50D0012BA0
:10B17000A6EB080305EBC30318BF4FF4C871D3F85F
:10B18000644D08BF4FF448716BF036FC226822F022
:10B1900001022260206123683D4A43F4706323600A
:10B1A000019B434402EB8309A36823F48063A360FB
:10B1B000A3686FF30903A360A36843F40043A3608B
:10B1C000A6EB080699F9210E022105EBC6056BF0E6
:10B1D000FBFC022199F9200E6BF0F6FCD5F8642DEA
:10B1E000136801210B43136085F8601D07B0BDE8AB
:10B1F000F08F6BF01FFD2368A2889A6108E7002F8B
:10B2000042D03B7240F60C23FB806BF013FDFCE652
:10B21000A6EB080305EBC303C821D3F8644DB3E7DD
:10B22000A6EB080305EBC3036421D3F8644DABE739
:10B230001C4BD3F8202842F40012C3F82028D3F87E
:10B24000202822F40012C3F8202881E703F5EA330E
:10B25000D3F8202842F40002C3F82028D3F820288D
:10B2600022F40002C3F8202872E703F5EC33D3F888
:10B27000202842F48002C3F82028D3F8202822F4A2
:10B280008002C3F8202863E76BF0D4FCC0E600BF5F
:10B2900000000120801F01200054004000580040A1
:10B2A000005C0040003002402DE9F843451C9DF849
:10B2B00024C06AD09D4E1446C0EBC00206EBC20209
:10B2C000054692F8609DC700B9F1000F5DD0FF2CD4
:10B2D00002D0002B40F00681A7EB050E94484FEA00
:10B2E000CE0E0EF104084A0080441146BCF1000F56
:10B2F00040F0208191B27A1BD20006EB020C0133A0
:10B30000DBB2ACF86E3D0432089BCCF8683D00EB34
:10B3100002080023DCF8640D8CF8783D40F64133D8
:10B320008269120436D44FF400524046FCF7F4FF11
:10B330007A1B06EBC20240F64133D2F8642D9069C5
:10B34000800743D49069C0062ED51023D3617B1BA0
:10B3500006EBC303112283F8782D02227B1B06EB38
:10B36000C303D3F8640D40F641338169890624D5BF
:10B370002023012AC36108D0B6F8443E01339BB2B2
:10B380002846A6F8443EFFF70DFE4FF00009484658
:10B39000BDE8F883013BC3D17B1B06EBC30312223C
:10B3A00083F8782D0122D9E7013BC8D17B1B06EB3E
:10B3B000C303122283F8782DCFE7013BD5D17B1B45
:10B3C00006EBC303122183F8781DD1E794627C1B3E
:10B3D00006EBC404B4F86C3D013B9BB2A4F86C3D91
:10B3E000B4F86E3D013B9BB2A4F86E3DB4F86E3DDF
:10B3F0009BB2002B3DD0D4F8642D40F641339069C8
:10B40000800715D49069C00609D57B1B06EBC303E2
:10B4100010201121D06183F8781D04229EE7013BA2
:10B42000EDD17B1B06EBC303122283F8782DF4E7E2
:10B43000D4F8683D581CC4F8680D1B789362B4F8C2
:10B440006C3D013B9BB2A4F86C3DB4F86E3D013BF2
:10B450009BB2A4F86E3DB4F86C3D9BB223B9B4F82E
:10B460006E3D9BB2002B41D1B4F86E3D9BB2002BD8
:10B47000C1D17B1B06EBC30340F64132D3F8643DD8
:10B4800099698C0615D49969C80609D51022DA6124
:10B490007B1B06EBC303112283F8782D06225DE7A0
:10B4A000013AEDD17B1B06EBC303122283F8782D02
:10B4B000F4E72022DA615A686FF309025A605A6889
:10B4C00022F480525A605A6822F47F025A605A6805
:10B4D00022F080725A605A6822F480625A604846AC
:10B4E000BDE8F8834A0006F5566003E740F64133AD
:10B4F0009069000615D49069C00609D51023D36160
:10B500007B1B06EBC303112283F8782D052225E768
:10B51000013BEDD17B1B06EBC303122283F8782D90
:10B52000F4E700224046FCF7F7FE9DE7801F01206C
:10B53000E02C0120B644AEF86E3D089BCEF8683D85
:10B54000DEF8640D00238EF8783D40F641338269C1
:10B5500014046ED47C1B06EBC4044FF40052404626
:10B56000FCF7DAFEB4F86E3D9BB2002B49D0D4F85C
:10B57000642D40F641339069800722D49069C0065B
:10B5800016D57B1B06EBC30310201121D06183F875
:10B59000781D02227B1B06EBC303D3F8640D40F633
:10B5A0004133816989063FF5E3AE013BF9D106E7F6
:10B5B000013BE0D17B1B06EBC303122283F8782DFD
:10B5C000E7E7D4F8683D581CC4F8680D1B7893620F
:10B5D000B4F86C3D013B9BB2A4F86C3DB4F86E3DF1
:10B5E000013B9BB2A4F86E3DB4F86C3D9BB21BB915
:10B5F000B4F86E3D9BB27BBBB4F86E3D9BB2002BA2
:10B60000B5D17B1B06EBC30340F64132D3F8643D52
:10B6100099698C063FF54DAF9969C80613D510227C
:10B62000DA617B1B06EBC303112283F8782D042219
:10B63000B0E7013B8BD17B1B06EBC303122283F8DF
:10B64000782D0122A6E7013AE2D17B1B06EBC3036A
:10B65000122283F8782DEAE740F64133906900061C
:10B6600015D49069C00609D51023D3617B1B06EB66
:10B67000C303112283F8782D03228BE7013BEDD120
:10B680007B1B06EBC303122283F8782DF4E700221C
:10B690004046FCF741FEAFE700680379012B0BD071
:10B6A000022B01D0002070478368DB074FF0F002C7
:10B6B00019D5FF2104F01CBE00B5826890F910C0B6
:10B6C000417C85B002F0010201920DF10F0200925F
:10B6D0006046FF224FF0F00C8DF80FC0FFF7E4FD3D
:10B6E00005B05DF804FB7F2104F002BE70B505686B
:10B6F0002B79012B84B004460E4617D0022B02D0C2
:10B70000002004B070BDAB68E122DB074CBF1146DE
:10B710006121284604F0ECFD0028F1D02068324673
:10B72000FF2104B0BDE8704005F0AEBBAA68697C9B
:10B7300095F9100002F001020DF10F05019200953C
:10B74000E1228DF80F20FFF7AFFDE5E770B5056842
:10B750002B79012B84B004460E4618D0022B02D060
:10B76000002004B070BDAB68DB074FF0C3024CBFD4
:10B77000E1216121284604F0BBFD0028F0D02068BB
:10B780003246FF2104B0BDE8704005F07DBBAA68D9
:10B7900095F91000697C02F0010201920DF10F028F
:10B7A0000092C3228DF80F20E122FFF77DFDE4E730
:10B7B00000680379CA4341EA0211012BCAB209D0D9
:10B7C000022B01D0002070478368DB0717D5D221F8
:10B7D00004F08EBD00B585B090F910C08DF80F2033
:10B7E0008268417C02F001020DF10F00CDE90002F8
:10B7F000D2226046FFF758FD05B05DF804FB5221E8
:10B8000004F076BD70B505682B79012B84B0044631
:10B810000E461CD0022B02D0002004B070BDAB68D5
:10B82000DB074FF0F0024CBFE1216121284604F014
:10B830005FFD0028F0D02246FF2152F8040B05F0EE
:10B8400023FB0028E8D02379337004B070BDAA68C8
:10B8500095F91000697C02F0010201920DF10F02CE
:10B860000092F0228DF80F20E122FFF71DFDE0E7A6
:10B8700000680379012B0BD0022B01D00020704708
:10B880008368DB074FF0B40219D5FF2104F030BD07
:10B8900000B5826890F910C0417C85B002F00102C9
:10B8A00001920DF10F0200926046FF224FF0B40C9E
:10B8B0008DF80FC0FFF7F8FC05B05DF804FB7F21A1
:10B8C00004F016BD00680379012B0AD0022B01D0C9
:10B8D000002070478368DB070A4617D5A52104F0CE
:10B8E00007BD00B5826890F910C085B002F0010272
:10B8F0008DF80F10417C0DF10F00CDE90002A5225B
:10B900006046FFF7D1FC05B05DF804FB252104F08B
:10B91000EFBC00BF00680379012B0BD0022B01D0D4
:10B92000002070478368DB074FF0960219D5FF218E
:10B9300004F0DEBC00B5826890F910C0417C85B08F
:10B9400002F0010201920DF10F0200926046FF2207
:10B950004FF0960C8DF80FC0FFF7A6FC05B05DF810
:10B9600004FB7F2104F0C4BC00680379012B0AD0DA
:10B97000022B01D0002070478368DB070A4617D5E9
:10B98000872104F0B5BC00B5826890F910C085B07D
:10B9900002F001028DF80F10417C0DF10F00CDE98E
:10B9A000000287226046FFF77FFC05B05DF804FBCC
:10B9B000072104F09DBC00BF00680379C901012B79
:10B9C000CAB206D0022B01D000207047782104F0C3
:10B9D0008FBC00B585B090F910C08DF80F2082683B
:10B9E000417C02F001020DF10F00CDE90002782246
:10B9F0006046FFF759FC05B05DF804FB0068037969
:10BA0000012B0BD0022B01D0002070478368DB078D
:10BA10004FF0550219D5A52104F06ABC00B5826823
:10BA200090F910C0417C85B002F0010201920DF145
:10BA30000F0200926046A5224FF0550C8DF80FC002
:10BA4000FFF732FC05B05DF804FB252104F050BC83
:10BA50002DE9F84305466E1C9DF8240056D0B54EDE
:10BA6000C5EBC50706EBC7044FEAC50994F8608D1E
:10BA7000B8F1000F4AD0FF2A04F664574FEA41019B
:10BA800002D1002840F0CF80A9EB050006EBC000F2
:10BA9000A0F86E3D089BC0F8683D002380F8783D13
:10BAA000D0F8640D40F641338469240433D44368EC
:10BAB000A14C23400B4343F4903343608469A407B3
:10BAC00040F6413336D48469E4062ED51023C36191
:10BAD000A9EB050306EBC303112283F8782DA9EB2C
:10BAE000050206EBC20240F64133D2F8641D8A69B2
:10BAF000920640F18A802023CB61B6F8443E0133A0
:10BB00009BB22846A6F8443EFFF74CFA4FF00008D7
:10BB10004046BDE8F883013BC6D1A9EB050306EB1F
:10BB2000C303122283F8782DD9E7013BF5D084694D
:10BB3000A407C8D5826240F64133826954066FD5A6
:10BB4000A9EB050406EBC4044FF410523846FCF789
:10BB5000E3FBB4F86E3D9BB2002B3CD0D4F8642DCF
:10BB60009069400740F6413311D49069C00609D569
:10BB7000A9EB050306EBC30310201121D06183F864
:10BB8000781DACE7013BC8D090694007EDD5D4F8EB
:10BB9000683D526A581CC4F8680D1A70B4F86E3DBE
:10BBA000013B9BB2A4F86E3DB4F86C3D013B9BB2E7
:10BBB000A4F86C3DB4F86C3D9BB23BB9B4F86E3D53
:10BBC000D4F8640D9BB2002B40F0DB80B4F86E3DDE
:10BBD0009BB2002BC2D1A9EB050306EBC30340F6D1
:10BBE0004132D3F8643D9969880600F1AE809969C5
:10BBF000C90640F1A3801022DA61A9EB050306EB28
:10BC0000C303112283F8782D69E7013B7FF46FAFFE
:10BC1000A9EB050306EBC303122283F8782D6AE72C
:10BC2000013B8AD179E7A4F86E3D089BC4F8683DD2
:10BC3000D4F8640D002384F8783D40F641338269DE
:10BC4000140474D4A9EB050406EBC4044FF4105299
:10BC50003846FCF761FBB4F86E3D9BB2002B4ED02A
:10BC6000D4F8642D40F641339069400724D490699C
:10BC7000C00617D5A9EB050306EBC303102011215D
:10BC8000D06183F8781DA9EB050206EBC20240F6ED
:10BC90004133D2F8641D8A6997063FF52CAF013B0A
:10BCA000F9D1B5E7013BDFD1A9EB050306EBC303EF
:10BCB000122283F8782DE6E7D4F8683D526A581CC2
:10BCC000C4F8680D1A70B4F86E3D013B9BB2A4F83D
:10BCD0006E3DB4F86C3D013B9BB2A4F86C3DB4F8EA
:10BCE0006C3D9BB233B9B4F86E3DD4F8640D9BB291
:10BCF000002B53D1B4F86E3D9BB2002BB0D1A9EB11
:10BD0000050306EBC30340F64132D3F8643D99695D
:10BD100088061AD49969C90630D51022DA61A9EBD0
:10BD2000050306EBC303112283F8782DABE7013B33
:10BD300085D1B9E7801F0120009800FC013A3FF44B
:10BD4000ECAE996988067FF552AF2022DA615A6815
:10BD50006FF309025A605A6822F480525A605A6896
:10BD600022F47F025A605A6822F080725A605A6840
:10BD700022F480625A604046BDE8F883013AC6D199
:10BD800092E740F641338269120604D50022384614
:10BD9000FCF7C2FA1AE7013BF5D1BEE640F64133A3
:10BDA0008269120604D500223846FCF7B5FAA1E7ED
:10BDB000013BF5D178E700BFF0B5044683B00D46EE
:10BDC0001746061D20680379012B1AD0022B02D0DA
:10BDD000002003B0F0BD8368DB0732464FF0FF015F
:10BDE0005CBF3246FF2104F0FBFF0028F0D015B104
:10BDF0002379DB07E6D4002FEBD023793B7003B027
:10BE0000F0BD8268417C90F9100002F00102CDE99A
:10BE10000062FF22FFF71CFEE7E700BF30B50446D3
:10BE2000051D20680379012B83B017D0022B02D0A7
:10BE3000002003B030BD8368DB072A464FF0FF01C6
:10BE40005CBF2A46FF2104F0CBFF0028F0D0237905
:10BE5000DB07EED520680379012BE7D18268417CAE
:10BE600090F9100002F00102CDE90052FF22FFF725
:10BE7000EFFDEAE730B50246044652F8040B0379B9
:10BE8000012B83B00ED0022B01D0002008E0FF214F
:10BE900004F0A6FF0028F8D02079C04300F001008C
:10BEA00003B030BD8568417C90F91000009205F028
:10BEB00001050195FF22FFF7CBFDEBE730B5B4227A
:10BEC00083B00446FF21006804F068FA10B900202E
:10BED00003B030BD20680379012B04F1040514D0B0
:10BEE000022BF4D18368DB072A464FF0FF015CBFC9
:10BEF0002A46FF2104F074FF0028E8D02379DB07ED
:10BF0000E6D520680379012BEAD18268417C90F95B
:10BF1000100002F00102CDE90052FF22FFF798FD68
:10BF2000EAE700BF30B50A4683B00446A5210068A1
:10BF300004F034FA10B9002003B030BD2068037952
:10BF4000012B04F1040514D0022BF4D18368DB0724
:10BF50002A464FF0FF015CBF2A46FF2104F040FF54
:10BF60000028E8D02379DB07E6D520680379012B88
:10BF7000EAD18268417C90F9100002F00102CDE91B
:10BF80000052FF22FFF764FDEAE700BF70B582B000
:10BF9000CDE900230446FFF791FF10B9002002B05D
:10BFA00070BD20685522A52104F0F8F90028F5D0CD
:10BFB000251D20682A46FF2104F066FF0028EDD0E9
:10BFC0002379DB07F5D40DF1FF350DF1070615F8E0
:10BFD000011F2046FFF7A6FF0028DFD0B542F6D1AB
:10BFE000DDE700BF002A35D0F0B5044683B00E4629
:10BFF0008F18051D16F8012B2068A52104F0CEF935
:10C0000090B9002003B0F0BD8268417C90F9100027
:10C0100002F00102CDE90052FF22FFF719FD0028CE
:10C02000EFD02379DB0710D520680379012BEBD003
:10C03000022BE6D18368DB072A464FF0FF015CBF85
:10C040002A46FF2104F0CCFEE9E7B742D2D1012015
:10C0500003B0F0BD0120704770B5962282B004464F
:10C060000E460068FF2104F099F910B9002002B0D3
:10C0700070BD251D20680379012B1FD0022BF5D13F
:10C080008368DB072A464FF0FF015CBF2A46FF2189
:10C0900004F0A6FE0028E9D02379DB07EAD4E122E8
:10C0A0002068114604F07AF90028DFD02068324673
:10C0B000FF2102B0BDE8704004F0E6BE8268417C1A
:10C0C00090F9100002F00102CDE90052FF22FFF7C3
:10C0D000BFFCDFE7002A43D0F0B5044683B00E462C
:10C0E0008F18051D20689622FF2104F057F990B99A
:10C0F000002003B0F0BD8268417C90F9100002F08E
:10C100000102CDE90052FF22FFF7A2FC0028EFD088
:10C110002379DB0710D520680379012BEBD0022BA4
:10C12000E6D18368DB072A464FF0FF015CBF2A4651
:10C13000FF2104F055FEE9E7E1222068114604F0F2
:10C140002DF90028D4D020683246FF2104F09CFE4F
:10C150000028CDD00136B742C4D1012003B0F0BDD4
:10C160000120704770B505460B460446164655F843
:10C17000040B82B087211A4604F010F92068037975
:10C18000012B1AD0022B02D0002002B070BD8368B0
:10C19000DB072A464FF0FF015CBF2A46FF2104F06F
:10C1A0001FFE0028F0D02379DA07E7D4002EECD068
:10C1B000C3F34013337002B070BD8268417C90F9C4
:10C1C000100002F00102CDE90052FF22FFF740FC0F
:10C1D000E7E700BF70B5782182B0044616460068D4
:10C1E000002204F0DBF810B9002002B070BD251D5C
:10C1F00020680379012B14D0022BF5D18368DB076B
:10C200002A464FF0FF015CBF2A46FF2104F0E8FDFB
:10C210000028E9D02379DA07EAD45B09337002B049
:10C2200070BD8268417C90F9100002F00102CDE9F6
:10C230000052FF22FFF70CFCEAE700BF30B5CC222A
:10C2400083B00446A521006804F0A8F810B90020C6
:10C2500003B030BD20680379012B04F1040514D02C
:10C26000022BF4D18368DB072A464FF0FF015CBF45
:10C270002A46FF2104F0B4FD0028E8D02379DB072B
:10C28000E6D520680379012BEAD18268417C90F9D8
:10C29000100002F00102CDE90052FF22FFF7D8FBA7
:10C2A000EAE700BF30B5B42283B00446FF2100683E
:10C2B00004F074F810B9002003B030BD251D2068CB
:10C2C0000379012B22D0022BF5D18368DB072A46A4
:10C2D0004FF0FF015CBF2A46FF2104F081FD0028DA
:10C2E000E9D02379DA07EAD4CC212046FFF71AFEF9
:10C2F0000028E0D002E02379DB07DDD520682A465C
:10C30000FF2104F0C1FD0028F5D1D4E78268417C0B
:10C3100090F9100002F00102CDE90052FF22FFF770
:10C3200097FBDCE72DE9F04F8BB0CDE907230446FE
:10C33000002004908A460390251D049B079A2046FE
:10C34000DE0002EBC30BFFF7B9FD20B935E023791E
:10C3500013F0010207D020682A46FF2104F094FD63
:10C360000028F4D129E005929A07099040F1D8807D
:10C37000F0212046FFF7D6FDF8B1079BDDF81480C9
:10C38000083E3344012606933746BAF1000F54D0D5
:10C39000082F52D807F1FF394AFA09F909F00109C3
:10C3A00020684FEAC912782103F0F8FF28B120680D
:10C3B0000379012B50D0022B06D00020089B049A51
:10C3C0001A700BB0BDE8F08F8368DB072A464FF088
:10C3D000FF015CBF2A46FF2104F002FD0028ECD0DB
:10C3E000237913F00102E2D1C3F3801CD9099B0623
:10C3F00046D5BCF1000F60D1BAF1000F5AD0082F1A
:10C4000058D8894540F08880B9F1000F48D01BF812
:10C41000083033430BF808307600013716F0FF067A
:10C42000FFB2B2D108F101085FFA88F8B8F1080F3D
:10C4300043D00126BAF1000FAAD1049BC3B1039BDC
:10C44000BB4215D9069B13F808301E4214BF4FF0AB
:10C4500001094FF00009A3E78268417C90F91000C0
:10C4600002F00102CDE90052FF22FFF7F1FAB5E731
:10C47000039BA3EB0709B9FA89F94FEA59198FE72A
:10C48000BAF1000F13D0082F11D8894596D1B9F110
:10C49000000FBCD1059BBCF1000F08BF3B460593C4
:10C4A0001BF8083023EA06030BF80830B4E700292C
:10C4B000ADD1EFE70029AAD1F2E7402F06D8089BBB
:10C4C000049A1B7893423FF638AF77E79BF80770E2
:10C4D0000BF1FF360BF1060B16F801CF082182EAAB
:10C4E0000C0343F30003013923F0730383EA520280
:10C4F00011F0FF01D2B24FEA5C0CF0D1B345EBD1A1
:10C500009742DCD1049B0133DBB20493059B002BE3
:10C510003FF454AF0393D2E7DDF8248040464DE763
:10C52000804640464AE700BF016840F2FF62024091
:10C53000002321F00101B2F5C16F01600360436087
:10C540008360C3600ED2C3B20A4A0B49083BA2FB08
:10C5500003231B0948689B000F2202FA03F30343DD
:10C560004B607047B2F5D16FFBD2C3B2014A0349A9
:10C57000083BECE7CDCCCCCC006402400066024026
:10C5800010B40A4A0A4B83B002EB800200240194E3
:10C59000CA200192532258625A620198FF22016018
:10C5A0005A6203B05DF8044B704700BF502800404A
:10C5B0000028004010B5124A124CD2F83038012041
:10C5C00082B00343C2F83038022100230190009169
:10C5D0001A464FF4C051204672F04CF9636A23F4B6
:10C5E00070236362636A43F420236362636A23F403
:10C5F00070436362636A43F42043636202B010BD18
:10C6000000300240000002402DE9F0471C4DAB68AD
:10C61000D5F8486E5C6A81460F464FF0000804E08A
:10C62000D5F8483E9B1B322B09D894F85230012B89
:10C63000F6D194F852302BB947451ED0F5D8404674
:10C64000BDE8F087A7EB080ABAF5007FA8BF4FF452
:10C65000007A002384F8523009EB080209481FFAD7
:10C660008AF38121FCF792F94745D04405D047452C
:10C67000DBD8E4D1BB06D8D0E1E7B846DFE700BF9E
:10C68000801F0120841F0120F8B50D4E96F8E83276
:10C69000032B00D0F8BDD6F8487E0D46144609E0BD
:10C6A000FFF7B2FFD6F8483EDB1B322BA4EB0004A9
:10C6B0000544EFD8002C21462846F1DCF8BD00BF28
:10C6C000801F01202DE9F04FA44DD5F80080D8F847
:10C6D0001460D8F81820D8F81430DB0785B025D4BA
:10C6E0001640B70744BF0223C8F81430740300F1A2
:10C6F0009080300300F12181F20400F15381310771
:10C7000007D5AB68DB690BB1954898470823C8F893
:10C710001430B2040DD4F3063DD4F70253D4B4025E
:10C720005DD4002EC0F2AE81300565D405B0BDE801
:10C73000F08F6C688B49D4F800396FF30A03C4F8A2
:10C740000039D4F8043823F48073C4F80438E3685B
:10C75000052262F38D23E3604FF040090127204654
:10C76000C5F87891A5F87271FCF704F800237E49AA
:10C770006B822046C5F81890FBF7FCFFAB6885F884
:10C78000E8725B680BB1764898474FF40053C8F8DD
:10C790001430F306C1D56B689A6922F010029A61D1
:10C7A0001A6AC2F343410229C2F30A1702F00F02C8
:10C7B00000F03082062900F097839A69F70242F070
:10C7C00010029A61ABD5AB681B6A13B164480521AE
:10C7D00098474FF48013B402C8F81430A1D5AB6861
:10C7E0001B6A13B15E48062198474FF40013002ED0
:10C7F000C8F8143098DA45E16B68D3F80828D107F7
:10C8000000F12C824FF40063C8F8143005B0BDE885
:10C81000F08F6B68D3F81878D3F81C281740BFB294
:10C8200003F50061002F3FF464AF4FF0000ACDE93B
:10C8300001864A4C03F5106B5646884608E07F088F
:10C8400006F1010604F12C040BF1200B00F03981F4
:10C85000F907F4D5D8F81020D8F8343023FA06F9BF
:10C860004FEAC919DBF808305FFA89F949EA020989
:10C8700009EA030919F0010F40F0378119F0080F98
:10C880001CBF0823CBF8083019F0100F1CBF102371
:10C89000CBF8083019F0400F1CBF4023CBF808300C
:10C8A00019F0020F1CBF0223CBF8083019F0800FDB
:10C8B000C5D0D5F80490A26AE36AA16909F5106AA7
:10C8C0000AEB461AA2EB030E8E45DAF8180028BFD1
:10C8D0008E4680B20EF10301B0EB910F40F2F8806A
:10C8E00009F5805C0CEB063C03961146994240F238
:10C8F000EE80A269C91A914228BF114688B203305E
:10C90000CE1C8010626A8E464FEA960609D000233C
:10C91000013352F8041BCCF800109842F8D1626A37
:10C92000E36A72446262DAF8182092B27344964263
:10C93000E36280F0CC80A16AD8E76F68D7F8184826
:10C94000D7F81C381C40240C07F5006B3FF4D4AE1C
:10C9500007F530674FF000090FE000BF801F01208E
:10C96000841F0120F0200120901F0120640809F19C
:10C97000010907F120073FF4BFAEE307F6D5BA6817
:10C98000DBF8143002EA030A1AF0010F40F00581C7
:10C990001AF0080F40F0CD801AF0100F1CBF1023C2
:10C9A000BB60E3E76C68D4F8043823F00103C4F8F3
:10C9B000043869F001FF2269B94B102161F38A1232
:10C9C0002261226942F0200204F50067226101E041
:10C9D000013B02D022699006FAD404F5106304F5F5
:10C9E0002061FF229A60C3F8082220339942F9D1CE
:10C9F0004FF0FF33BB614FF00113FB617B6943F0E4
:10CA000001037B617B6943F002037B617B6943F037
:10CA100008037B613B6943F001033B613B6943F0E1
:10CA200002033B613B6943F008033B61D4F80038E3
:10CA300023F4FE63C4F800380023C4F8103BD4F894
:10CA4000103B012161F3DC43C4F8103BD4F8103BE8
:10CA5000182262F31203C4F8103BD4F8103B43F0E1
:10CA6000C043C4F8103BAB6885F8E8121B6A0BB1F1
:10CA70008C4898474FF480533107C8F814307FF53D
:10CA800048AE3EE66B68D3F8042822F00102C3F8F2
:10CA90000428D3F8002E22F00102C3F8002E95F8E6
:10CAA000E922AB6885F8E8221B6A13B17D480321AF
:10CAB00098474FF000433005C8F814307FF536AE84
:10CAC0009AE6DDE9018630037FF516AE35E7039E71
:10CAD000BEF1000F7FF4B3AED9F834380122B24072
:10CAE00023EA0203C9F83438A9E6D8F83430012221
:10CAF00002FA06F123EA0103C8F83430CBF8082023
:10CB0000002E6AD195F8E432022B7FF4B7AE696B40
:10CB1000AB69994240F21782C91A8B42696388BF98
:10CB20008BB26A6A5F4898BF9BB20021FBF72EFF69
:10CB3000A4E60823BB60B5F8D822B5F8DE32D5F8F4
:10CB4000DA12B5F8DCE2A5F8D022012085F8E4027B
:10CB500002F01F000128A5F8D632A5F8E632C5F884
:10CB6000D2125FFA82FC00F0AE810228C2F30722E3
:10CB700000F06B81002800F0858095F8EA32002BE8
:10CB80003FF40AAF6A68D2F80018002063F30A1174
:10CB9000C2F8001885F8EA02FEE60123BB60B9F18D
:10CBA000000F28D195F8E432032B7FF4F1AED5F8CD
:10CBB0009411D5F87831994240F2AF81C91A8B426D
:10CBC000C5F8941188BF8BB2D5F88421354898BF39
:10CBD0009BB20021FBF77EFFDAE6AB685B69002BB6
:10CBE0003FF44CAE95F8E822032A7FF447AEF1B249
:10CBF0002C48984742E6AB689B69002B3FF4C8AECF
:10CC000095F8E822032A7FF4C3AE5FFA89F125483C
:10CC10009847BDE6002F3FF4D0AD2C2101FB025117
:10CC200007F1030CD1F884914FEAAC0C03F5805E58
:10CC3000484600210131DEF8004040F8044B6145D0
:10CC4000F8D12C2101FB025209EB0700D2F88C111C
:10CC5000C2F884013944C2F88C11AEE595F8E82297
:10CC600085F8E922042285F8E822D3F80828D207BB
:10CC70001AD4AB681B6A002B3FF4C4AD02210948EB
:10CC80009847BFE51CF0600F40F0568189B2092A31
:10CC900011D8DFE802F05A3910B110C68A107414A6
:10CCA000420D0300841F0120D3F8002E42F0010240
:10CCB000C3F8002EDDE7B348FBF72AFE5DE7C9B2F3
:10CCC0005EEA030385F84C1E0193F4D195F8E8322F
:10CCD000022B00F0FE81032BEDD1002940F0E4810E
:10CCE000AB6885F8ED12022285F8E8225B68A5485A
:10CCF000019198470199A348042385F8E4320A4634
:10CD00000B46FBF743FE38E795F8E832023B012B70
:10CD1000D1D801297FF431AFD5F8F032AA689A4909
:10CD200023F00203C5F8F032002385F8EB32926855
:10CD3000A1F533709047042285F8E422002391483E
:10CD40001A461946FBF722FE17E795F8E832023B30
:10CD5000012BB0D895F8EB322BB1D5F8F03243F077
:10CD60000203C5F8F032894A02230021A2F53B7084
:10CD7000C5E90D3385F8E432FBF708FEFDE6012B2B
:10CD800099D195F8E822022A00F06E81032A92D107
:10CD90007F4A02216FF43A7085F8E41210180021DE
:10CDA000C5E90D33FBF7F2FDE7E60B0A022B00F0B5
:10CDB000A581032B00F09981012B7FF47CAFEB68F8
:10CDC0001B68984700283FF4D8AE0388002B3FF437
:10CDD000D4AEB5F8D61200293FF4CFAE8B4228BFAF
:10CDE0000B460221426885F8E41266480021C5E935
:10CDF0000D33FBF7CBFDC0E601297FF4BEAE85F80D
:10CE0000EB12AB6860499B68A1F53370984700232B
:10CE1000042285F8E4225B481A461946FBF7B6FD62
:10CE2000ABE65EEA03037FF446AF95F8E822032AF7
:10CE300001F07F013FF43FAF00290CBF0122022225
:10CE400085F8EA1285F8E822E2E70CF0600C0B0C9A
:10CE5000BCF1200F0193C1F3074309D1AA684A49E5
:10CE600092680293A1F53370904795F8D122029B06
:10CE7000012A00F0A580032A00F08E80002A7FF4AA
:10CE80001AAF95F8E822022A73D0032A7FF413AF71
:10CE9000019A120600F1E1802C2202FB035202F5F6
:10CEA000B872537B3748A3F10103B3FA83F35B09EC
:10CEB00042F8103F00210223C5E90D3385F8E43222
:10CEC000FBF764FD59E695F8E832032B7FF4F3AEE7
:10CED000AB682D499B68A1F533709847B5F8D632F9
:10CEE000002B7FF44AAE92E707F1030C5FEAAC0C2B
:10CEF0000AD0284803F5805E00210131DEF80040A9
:10CF000040F8044B8C45F8D12C2101FB0252D2F899
:10CF10008C113944C2F88C114FE4AB681B690BB11A
:10CF2000184898470023042285F8E42215481A4639
:10CF30001946FBF72BFD2BE5AB6813499B68A1F560
:10CF40003370984719E62A6B934271D0AB68DB685F
:10CF50002BB195F8E822032A01D10A48984700230B
:10CF6000052285F8E42207481A461946FBF7B2FD68
:10CF700084E459063FF401AE02481946FBF798FCD9
:10CF8000FBE500BF841F01205022012070220120F8
:10CF90006D2201205822012095F8E822022AE8D0CB
:10CFA000032A7FF488AEB5F8D222002A7FF429AF95
:10CFB0005A063FF426AF5F481946FBF779FC20E795
:10CFC00095F8E822022AD4D0032A7FF474AEB5F88B
:10CFD000D222002A7FF4D1AD13F07F023FF417AFC5
:10CFE0000198696800065AD42C2202FB035202F50C
:10CFF000B87292F803C0107892F802E0ACF1020C1B
:10D000005FFA8CFC4001BEF1000F3AD101F51063CC
:10D01000BCF1010F19586EF3555119503AD9AB684C
:10D020004549002050739B68A1F533709847EEE6A0
:10D03000AA6B93428AD8B5F8E6329A4286D2334632
:10D04000324631463B482E63FBF7A0FC3948334655
:10D0500032463146FBF73EFD10E403F07F022C23FD
:10D0600003FB025210321CE785F8E422334A002108
:10D07000A2F53A70C5E90D3385F8EC12FBF786FC92
:10D080007BE501F53063BCF1010F195821F4001163
:10D090001950C4D8195841F080511950BFE72C23BA
:10D0A00003FB02521032A4E795F8ED328B427FF475
:10D0B000AEAEAB681F485B68984795F84C3E85F864
:10D0C000ED32AB681B481B689847042385F8E432AF
:10D0D00034E600293FF49BAEAB6885F8ED120322DD
:10D0E00085F8E8221B681348EEE7C9B205293FF628
:10D0F00023AFDFE801F01B17130F0B07EB689B68EA
:10D1000098475FE6EB681B6A98475BE6EB685B6AEB
:10D11000984757E6EB68DB69984753E6EB689B69ED
:10D1200098474FE6EB685B6998474BE6EB681B69ED
:10D13000984747E6841F0120502201206C220120DD
:10D140004B4B4C4AD3F83C3E934271D013D94A4AD8
:10D15000934264D036D8494A934257D0484A9342C2
:10D1600040F08280474BD3F8A420062161F30F32B0
:10D17000C3F8A4207047444A934235D010D8434A9C
:10D1800093425ED002F1B77202F5585293426DD1CC
:10D190003C4AD2F8A43023F47043C2F8A43070475C
:10D1A0003B4A934229D002F1B77202F5585293429A
:10D1B00059D1344BD3F8A420052161F30F32C3F8C1
:10D1C000A4207047334A934244D002F1B77202F56B
:10D1D0005852934249D12B4BD3F8A4200B2161F331
:10D1E0000F32C3F8A4207047264BD3F8A4200321A4
:10D1F00061F30F32C3F8A4207047224BD3F8A42068
:10D20000022161F30F32C3F8A42070471D4BD3F8FD
:10D21000A420072161F30F32C3F8A4207047194BF3
:10D22000D3F8A420092161F30F32C3F8A42070477A
:10D23000144BD3F8A420042161F30F32C3F8A420C7
:10D240007047104BD3F8A420012161F30F32C3F8CB
:10D25000A42070470B4BD3F8A420082161F30F32B0
:10D26000C3F8A4207047704770477047704700BFED
:10D2700000000120007A030A001C4E0E00B0710B62
:10D2800000E6DF0C0038024000D8B805006CDC0274
:10D29000000E27070052BC0F10B51C2004F052FAF4
:10D2A0001921044602F07CFF4CB12368A2889A62DF
:10D2B000C82007F0E1F82368A2889A6110BDBDE894
:10D2C0001040C82007F0D8B810B54FEA511E0244EC
:10D2D00000EB8E0C624529D901F01F034FF0FF349B
:10D2E00050F82E1004FA03F30B4093FAA3F3B3FAA9
:10D2F00083F3DBB2202B16D10CF104018A4202D851
:10D3000017E08A4212D98C460431DCF8003093FAD7
:10D31000A3F3B3FA83F3DBB2202BF2D0ACEB000C17
:10D3200003EBCC0010BD03EB4E1010BD4FF0FF30EF
:10D3300010BD204610BD00BF0369416890ED067A1C
:10D34000F0B4C56A3B4E876853EA010204BFD6F8C1
:10D35000481E41606A1C30EE077A0133012A80EDD5
:10D36000067A0361C26241D090ED075AD0ED096A96
:10D37000D6F8484E07EE902A70EE455AB8EEE76AA6
:10D38000611AC5EE867AB94277EE857A30EE670A81
:10D39000C0ED087AE5EE806AC0ED077AC0ED0A6A52
:10D3A000C0ED096A01D8F0BC7047012A2ADD07EEFA
:10D3B000905AF8EEE77A86EEA76AB5EEC06AF1EE0B
:10D3C00010FA1FDBF1EEC67AF4EE677AF1EE10FA8E
:10D3D00018D6D0ED056AF4EEE76AF1EE10FA14D52E
:10D3E000037BF3B10323F0BC03707047D6F8482EDB
:10D3F00080ED080A521ABA424FF0000180ED070A88
:10D400004162D0D9DFED0C7AE3E707EE903AF8EE0F
:10D41000677A0223C7EE276AF0BC0370C0ED066A84
:10D420007047D6F8481E4160002203618261C362E2
:10D43000B9E700BF801F012000000000DFED504A67
:10D4400010B5844600F1480E0346B1EC017AD3EDE5
:10D45000067ADA6A77EE877A0132012AC3ED067A14
:10D46000DA6255D093ED075A93ED096A07EE902AD8
:10D4700077EE455AF8EEE77AC5EEA76A76EE857A3A
:10D48000F0EE466A37EE677AC3ED087AE5EE876A12
:10D49000C3ED0A6AC3ED077AC3ED096A1833734511
:10D4A000D3D1384C4168D4F8482E0369521A8168A8
:10D4B00001338A4203612AD990ED056A00F1300EEA
:10D4C000DCF82C20DCED0A6A012A02F1FF3126DDAE
:10D4D00007EE901AF8EEE77A86EEA77AB5EEC07AF4
:10D4E000F1EE10FA1BDBF1EEC77AF4EE677AF1EE9B
:10D4F00010FA14D6E645B4EEE76A0CF1180C16D013
:10D50000F1EE10FADCD5037B6BB30323037010BD7F
:10D51000F0EE477AF0EE646A83ED087ABAE7DFED61
:10D52000187AE645B4EEE76A0CF1180CE8D1F1EE92
:10D5300010FAE8D407EE903AD0ED066A90ED0C7A36
:10D54000D0ED125AF8EE677A022386EEA76A0370CE
:10D55000C7EE276A85EEA77A80ED066AC0ED0C6AF1
:10D5600080ED127A10BD0022D4F8481E416003619C
:10D570008261C362026343648264C36510BD00BFFD
:10D5800000000000801F0120B0EEC06AF0EEE05AFB
:10D59000F4EEC65AF1EE10FAF0EE407A0EDCB5EE7B
:10D5A000400AF1EE10FA4BD0F4EEC65AF1EE10FA42
:10D5B000F0EE466A50D5B0EE655A03E0F0EE656ACB
:10D5C000B0EE465A85EE267A9FED252A9FED253A44
:10D5D0009FED254ADFED254ADFED252ADFED253ACF
:10D5E000DFED256AA7EE023AE7EE223AA7EE034AFC
:10D5F000B7EE005AE7EE044AA7EE235AE7EE246A94
:10D60000F4EEC65AB1EE667A87EE050AF1EE10FA2C
:10D6100048BF9FED1A7AF5EEC00A48BF37EE400AC0
:10D62000F1EE10FA48BF9FED167AF5EEC07A48BFCA
:10D6300037EE400AF1EE10FA48BFB1EE400A7047EB
:10D64000DFED107A9FED100AF5EEC00AF1EE10FA48
:10D6500058BFB0EE670A7047B0EE465AB2E700BF57
:10D6600039094E3DE3B59EBE88FA16BE45FE7FBF22
:10D6700099FB243F69A2163EA7DFA8B4DB0FC93F80
:10D68000DB0F4940A7DFA834DA0F4940F7EE007AF4
:10D69000F0EEC06A77EEE67AB0EE407AF5EEC07A48
:10D6A000F1EE10FA22DBF1EEE75AF4EE655AF1EEF4
:10D6B00010FA1BD69FED0F5ADFED0F7A9FED0F6A20
:10D6C0009FED0F0AE6EE857AB5EEC07AA7EEA66A60
:10D6D000F0EE407AE6EE267AF1EE10FA27EEA50A91
:10D6E00044BFDFED087A37EEC00A7047DFED065A17
:10D6F000E0E700BF306E99BC2716983D843459BED0
:10D70000A40DC93FDB0F4940000000002DE9F04F98
:10D710004FF0000989B0864600F110050646034621
:10D7200000F13008074648462C46CDF80CE08B4601
:10D730009C46B24600283CD10CF1040CA445FBD118
:10D74000032800F1010151D09C46AA46029398B1EA
:10D75000DCED047A0192AAEB0903B6467246F3ECBB
:10D76000016A92ED007AE6EEC77A53450EF1100E8B
:10D77000CCED047AF2D1019ADCED046A15ED047A5D
:10D78000C6EE877A0CF1100CC4450AF1100ACCEDF4
:10D79000007ADCD1029B04361433084608F10408F1
:10D7A00014351034103709F104099C46B24600289C
:10D7B000C2D0DCED007A0192D64639467246F1ECD1
:10D7C000016A92ED007AE6EEC77A99420EF1100EE8
:10D7D000CCED007AF2D10CF1040CA445019A0AF1C7
:10D7E000040AE6D1032800F10101ADD1DDF80CE017
:10D7F000002359460493059306930793764677468C
:10D8000004AD0020F2EC017AE5EC017AB0B104AC91
:10D810003B46B4EC017AF3EC016AE6EEC77AB34218
:10D8200045ED017AF5D1013004280BD0F2EC017AF4
:10D8300010371436E5EC017A0028E8D11037143699
:10D840000120DFE708AD75ED017A10310EF1400ED1
:10D8500004287446A1F1040241ED017A1ED07346FA
:10D86000F3EC016AB1EC017AE6EEC77AA342C2EDAD
:10D87000007AF5D15EED016A87EEA67A013882ED75
:10D88000007A17D0AEF1140E103C114675ED017AF6
:10D890000428A1F1040241ED017AE0D15EED016AB4
:10D8A00087EEA67A103CAEF1140E032001ED017A4A
:10D8B0001146EBE709B0BDE8F08F00BFDFED297A34
:10D8C000B4EEE70AF1EE10FA28DD9FED277A30EE8C
